{
  "_format": "hh3-artifact-1",
  "contractName": "PoolManager",
  "sourceName": "contracts/PoolManager.sol",
  "abi": [
    {
      "anonymous": false,
      "inputs": [
        {
          "indexed": false,
          "internalType": "address",
          "name": "token0",
          "type": "address"
        },
        {
          "indexed": false,
          "internalType": "address",
          "name": "token1",
          "type": "address"
        },
        {
          "indexed": false,
          "internalType": "uint32",
          "name": "index",
          "type": "uint32"
        },
        {
          "indexed": false,
          "internalType": "int24",
          "name": "tickLower",
          "type": "int24"
        },
        {
          "indexed": false,
          "internalType": "int24",
          "name": "tickUpper",
          "type": "int24"
        },
        {
          "indexed": false,
          "internalType": "uint24",
          "name": "fee",
          "type": "uint24"
        },
        {
          "indexed": false,
          "internalType": "address",
          "name": "pool",
          "type": "address"
        }
      ],
      "name": "PoolCreated",
      "type": "event"
    },
    {
      "inputs": [
        {
          "components": [
            {
              "internalType": "address",
              "name": "token0",
              "type": "address"
            },
            {
              "internalType": "address",
              "name": "token1",
              "type": "address"
            },
            {
              "internalType": "uint24",
              "name": "fee",
              "type": "uint24"
            },
            {
              "internalType": "int24",
              "name": "tickLower",
              "type": "int24"
            },
            {
              "internalType": "int24",
              "name": "tickUpper",
              "type": "int24"
            },
            {
              "internalType": "uint160",
              "name": "sqrtPriceX96",
              "type": "uint160"
            }
          ],
          "internalType": "struct IPoolManager.CreateAndInitializeParams",
          "name": "params",
          "type": "tuple"
        }
      ],
      "name": "createAndInitializePoolIfNecessary",
      "outputs": [
        {
          "internalType": "address",
          "name": "poolAddress",
          "type": "address"
        }
      ],
      "stateMutability": "payable",
      "type": "function"
    },
    {
      "inputs": [
        {
          "internalType": "address",
          "name": "tokenA",
          "type": "address"
        },
        {
          "internalType": "address",
          "name": "tokenB",
          "type": "address"
        },
        {
          "internalType": "int24",
          "name": "tickLower",
          "type": "int24"
        },
        {
          "internalType": "int24",
          "name": "tickUpper",
          "type": "int24"
        },
        {
          "internalType": "uint24",
          "name": "fee",
          "type": "uint24"
        }
      ],
      "name": "createPool",
      "outputs": [
        {
          "internalType": "address",
          "name": "pool",
          "type": "address"
        }
      ],
      "stateMutability": "nonpayable",
      "type": "function"
    },
    {
      "inputs": [],
      "name": "getAllPools",
      "outputs": [
        {
          "components": [
            {
              "internalType": "address",
              "name": "pool",
              "type": "address"
            },
            {
              "internalType": "address",
              "name": "token0",
              "type": "address"
            },
            {
              "internalType": "address",
              "name": "token1",
              "type": "address"
            },
            {
              "internalType": "uint32",
              "name": "index",
              "type": "uint32"
            },
            {
              "internalType": "uint24",
              "name": "fee",
              "type": "uint24"
            },
            {
              "internalType": "uint8",
              "name": "feeProtocol",
              "type": "uint8"
            },
            {
              "internalType": "int24",
              "name": "tickLower",
              "type": "int24"
            },
            {
              "internalType": "int24",
              "name": "tickUpper",
              "type": "int24"
            },
            {
              "internalType": "int24",
              "name": "tick",
              "type": "int24"
            },
            {
              "internalType": "uint160",
              "name": "sqrtPriceX96",
              "type": "uint160"
            },
            {
              "internalType": "uint128",
              "name": "liquidity",
              "type": "uint128"
            }
          ],
          "internalType": "struct IPoolManager.PoolInfo[]",
          "name": "poolsInfo",
          "type": "tuple[]"
        }
      ],
      "stateMutability": "view",
      "type": "function"
    },
    {
      "inputs": [],
      "name": "getPairs",
      "outputs": [
        {
          "components": [
            {
              "internalType": "address",
              "name": "token0",
              "type": "address"
            },
            {
              "internalType": "address",
              "name": "token1",
              "type": "address"
            }
          ],
          "internalType": "struct IPoolManager.Pair[]",
          "name": "",
          "type": "tuple[]"
        }
      ],
      "stateMutability": "view",
      "type": "function"
    },
    {
      "inputs": [
        {
          "internalType": "address",
          "name": "tokenA",
          "type": "address"
        },
        {
          "internalType": "address",
          "name": "tokenB",
          "type": "address"
        },
        {
          "internalType": "uint32",
          "name": "index",
          "type": "uint32"
        }
      ],
      "name": "getPool",
      "outputs": [
        {
          "internalType": "address",
          "name": "",
          "type": "address"
        }
      ],
      "stateMutability": "view",
      "type": "function"
    },
    {
      "inputs": [
        {
          "internalType": "uint256",
          "name": "",
          "type": "uint256"
        }
      ],
      "name": "pairs",
      "outputs": [
        {
          "internalType": "address",
          "name": "token0",
          "type": "address"
        },
        {
          "internalType": "address",
          "name": "token1",
          "type": "address"
        }
      ],
      "stateMutability": "view",
      "type": "function"
    },
    {
      "inputs": [],
      "name": "parameters",
      "outputs": [
        {
          "internalType": "address",
          "name": "factory",
          "type": "address"
        },
        {
          "internalType": "address",
          "name": "tokenA",
          "type": "address"
        },
        {
          "internalType": "address",
          "name": "tokenB",
          "type": "address"
        },
        {
          "internalType": "int24",
          "name": "tickLower",
          "type": "int24"
        },
        {
          "internalType": "int24",
          "name": "tickUpper",
          "type": "int24"
        },
        {
          "internalType": "uint24",
          "name": "fee",
          "type": "uint24"
        }
      ],
      "stateMutability": "view",
      "type": "function"
    },
    {
      "inputs": [
        {
          "internalType": "address",
          "name": "",
          "type": "address"
        },
        {
          "internalType": "address",
          "name": "",
          "type": "address"
        },
        {
          "internalType": "uint256",
          "name": "",
          "type": "uint256"
        }
      ],
      "name": "pools",
      "outputs": [
        {
          "internalType": "address",
          "name": "",
          "type": "address"
        }
      ],
      "stateMutability": "view",
      "type": "function"
    }
  ],
  "bytecode": "0x6080604052348015600e575f5ffd5b506143cf8061001c5f395ff3fe608060405260043610610079575f3560e01c8063890357301161004c5780638903573014610118578063b91ac788146101b1578063bade3d39146101f0578063d88ff1f414610203575f5ffd5b80630c2d4e4e1461007d578063169c4cef146100b957806371c54fc9146100d8578063767eb5ef146100f7575b5f5ffd5b348015610088575f5ffd5b5061009c610097366004611446565b610224565b6040516001600160a01b0390911681526020015b60405180910390f35b3480156100c4575f5ffd5b5061009c6100d33660046114b3565b610729565b3480156100e3575f5ffd5b5061009c6100f23660046114f1565b610767565b348015610102575f5ffd5b5061010b610889565b6040516100b09190611541565b348015610123575f5ffd5b5060015460028054600354610169936001600160a01b03908116939281169290821691600160a01b8104820b91600160b81b8204900b90600160d01b900462ffffff1686565b604080516001600160a01b03978816815295871660208701529390951692840192909252600290810b60608401520b608082015262ffffff90911660a082015260c0016100b0565b3480156101bc575f5ffd5b506101d06101cb36600461159b565b6108ff565b604080516001600160a01b039384168152929091166020830152016100b0565b61009c6101fe3660046115b2565b610936565b34801561020e575f5ffd5b50610217610d94565b6040516100b091906115cb565b5f8585806001600160a01b0316826001600160a01b0316036102615760405162461bcd60e51b815260040161025890611709565b60405180910390fd5b5f5f61026d8a8a6113d4565b6001600160a01b038083165f90815260208181526040808320938516835292815282822080548451818402810184019095528085529597509395509093919291908301828280156102e557602002820191905f5260205f20905b81546001600160a01b031681526001909101906020018083116102c7575b509394505f93505050505b8151811015610496575f82828151811061030c5761030c61174d565b602002602001015190508a60020b816001600160a01b03166359c4f9056040518163ffffffff1660e01b8152600401602060405180830381865afa158015610356573d5f5f3e3d5ffd5b505050506040513d601f19601f8201168201806040525081019061037a9190611761565b60020b1480156103ee57508960020b816001600160a01b03166355b812a86040518163ffffffff1660e01b8152600401602060405180830381865afa1580156103c5573d5f5f3e3d5ffd5b505050506040513d601f19601f820116820180604052508101906103e99190611761565b60020b145b801561046257508862ffffff16816001600160a01b031663ddca3f436040518163ffffffff1660e01b8152600401602060405180830381865afa158015610437573d5f5f3e3d5ffd5b505050506040513d601f19601f8201168201806040525081019061045b9190611783565b62ffffff16145b1561048d578282815181106104795761047961174d565b60200260200101519750505050505061071e565b506001016102f0565b506040518060c00160405280306001600160a01b03168152602001846001600160a01b03168152602001836001600160a01b031681526020018a60020b81526020018960020b81526020018862ffffff1681525060015f820151815f015f6101000a8154816001600160a01b0302191690836001600160a01b031602179055506020820151816001015f6101000a8154816001600160a01b0302191690836001600160a01b031602179055506040820151816002015f6101000a8154816001600160a01b0302191690836001600160a01b0316021790555060608201518160020160146101000a81548162ffffff021916908360020b62ffffff16021790555060808201518160020160176101000a81548162ffffff021916908360020b62ffffff16021790555060a082015181600201601a6101000a81548162ffffff021916908362ffffff1602179055509050505f83838b8b8b60405160200161060095949392919061179e565b6040516020818303038152906040528051906020012090508060405161062590611404565b8190604051809103905ff5905080158015610642573d5f5f3e3d5ffd5b506001600160a01b038581165f818152602081815260408083208986168085529083528184208054600180820183559186529484902090940180549688166001600160a01b0319978816811790915584548716909455600280549096168655600380546001600160e81b0319169055885182519586529285015263ffffffff909116838201528e840b6060840152928d900b608083015262ffffff8c1660a083015260c082015290519198507fe026b1b60fa8f2d35cd0844432a7b513a5a112d8cfe2b30bc62c1c4b81373c75919081900360e00190a1505050505b505095945050505050565b5f602052825f5260405f20602052815f5260405f20818154811061074b575f80fd5b5f918252602090912001546001600160a01b0316925083915050565b5f8383806001600160a01b0316826001600160a01b03160361079b5760405162461bcd60e51b815260040161025890611709565b6001600160a01b038616158015906107bb57506001600160a01b03851615155b61081c5760405162461bcd60e51b815260206004820152602c60248201527f546f6b656e4120616e6420546f6b656e422063616e6e6f74206265207468652060448201526b7a65726f206164647265737360a01b6064820152608401610258565b5f5f61082888886113d4565b6001600160a01b038083165f9081526020818152604080832093851683529290522080549294509092509063ffffffff88169081106108695761086961174d565b5f918252602090912001546001600160a01b031698975050505050505050565b60606004805480602002602001604051908101604052809291908181526020015f905b828210156108f6575f848152602090819020604080518082019091526002850290910180546001600160a01b039081168352600191820154168284015290835290920191016108ac565b50505050905090565b6004818154811061090e575f80fd5b5f918252602090912060029091020180546001909101546001600160a01b0391821692501682565b5f61094760408301602084016117d7565b6001600160a01b031661095d60208401846117d7565b6001600160a01b0316106109b35760405162461bcd60e51b815260206004820152601f60248201527f746f6b656e30206d757374206265206c657373207468616e20746f6b656e31006044820152606401610258565b30630c2d4e4e6109c660208501856117d7565b6109d660408601602087016117d7565b6109e660808701606088016117f2565b6109f660a08801608089016117f2565b610a066060890160408a0161180d565b6040518663ffffffff1660e01b8152600401610a2695949392919061179e565b6020604051808303815f875af1158015610a42573d5f5f3e3d5ffd5b505050506040513d601f19601f82011682018060405250810190610a669190611828565b90505f8190505f5f5f836001600160a01b0316630dfe16816040518163ffffffff1660e01b8152600401602060405180830381865afa158015610aab573d5f5f3e3d5ffd5b505050506040513d601f19601f82011682018060405250810190610acf9190611828565b6001600160a01b03166001600160a01b031681526020019081526020015f205f836001600160a01b031663d21220a76040518163ffffffff1660e01b8152600401602060405180830381865afa158015610b2b573d5f5f3e3d5ffd5b505050506040513d601f19601f82011682018060405250810190610b4f9190611828565b6001600160a01b03166001600160a01b031681526020019081526020015f20805490509050816001600160a01b0316638db791d26040518163ffffffff1660e01b8152600401602060405180830381865afa158015610bb0573d5f5f3e3d5ffd5b505050506040513d601f19601f82011682018060405250810190610bd49190611828565b6001600160a01b03165f03610d8d576001600160a01b03821663f637731d610c0260c0870160a088016117d7565b6040516001600160e01b031960e084901b1681526001600160a01b0390911660048201526024015f604051808303815f87803b158015610c40575f5ffd5b505af1158015610c52573d5f5f3e3d5ffd5b5050505080600103610d8d5760046040518060400160405280846001600160a01b0316630dfe16816040518163ffffffff1660e01b8152600401602060405180830381865afa158015610ca7573d5f5f3e3d5ffd5b505050506040513d601f19601f82011682018060405250810190610ccb9190611828565b6001600160a01b03168152602001846001600160a01b031663d21220a76040518163ffffffff1660e01b8152600401602060405180830381865afa158015610d15573d5f5f3e3d5ffd5b505050506040513d601f19601f82011682018060405250810190610d399190611828565b6001600160a01b039081169091528254600180820185555f948552602094859020845160029093020180546001600160a01b0319908116938516939093178155939094015192909301805490931691161790555b5050919050565b60605f805b600454811015610e38575f5f60048381548110610db857610db861174d565b5f91825260208083206002909202909101546001600160a01b0316835282019290925260400181206004805491929184908110610df757610df761174d565b5f9182526020808320600160029093020191909101546001600160a01b03168352820192909252604001902054610e2e9083611857565b9150600101610d99565b508063ffffffff1667ffffffffffffffff811115610e5857610e58611879565b604051908082528060200260200182016040528015610edd57816020015b60408051610160810182525f8082526020808301829052928201819052606082018190526080820181905260a0820181905260c0820181905260e082018190526101008201819052610120820181905261014082015282525f19909201910181610e765790505b5091505f805b6004548110156113ce575f5f5f60048481548110610f0357610f0361174d565b5f91825260208083206002909202909101546001600160a01b0316835282019290925260400181206004805491929185908110610f4257610f4261174d565b5f9182526020808320600160029093020191909101546001600160a01b03168352828101939093526040918201902080548251818502810185019093528083529192909190830182828015610fbe57602002820191905f5260205f20905b81546001600160a01b03168152600190910190602001808311610fa0575b509394505f93505050505b81518110156113c4575f828281518110610fe557610fe561174d565b6020026020010151905060405180610160016040528084848151811061100d5761100d61174d565b60200260200101516001600160a01b03168152602001826001600160a01b0316630dfe16816040518163ffffffff1660e01b8152600401602060405180830381865afa15801561105f573d5f5f3e3d5ffd5b505050506040513d601f19601f820116820180604052508101906110839190611828565b6001600160a01b03168152602001826001600160a01b031663d21220a76040518163ffffffff1660e01b8152600401602060405180830381865afa1580156110cd573d5f5f3e3d5ffd5b505050506040513d601f19601f820116820180604052508101906110f19190611828565b6001600160a01b031681526020018363ffffffff168152602001826001600160a01b031663ddca3f436040518163ffffffff1660e01b8152600401602060405180830381865afa158015611147573d5f5f3e3d5ffd5b505050506040513d601f19601f8201168201806040525081019061116b9190611783565b62ffffff1681526020015f60ff168152602001826001600160a01b03166359c4f9056040518163ffffffff1660e01b8152600401602060405180830381865afa1580156111ba573d5f5f3e3d5ffd5b505050506040513d601f19601f820116820180604052508101906111de9190611761565b60020b8152602001826001600160a01b03166355b812a86040518163ffffffff1660e01b8152600401602060405180830381865afa158015611222573d5f5f3e3d5ffd5b505050506040513d601f19601f820116820180604052508101906112469190611761565b60020b8152602001826001600160a01b0316633eaf5d9f6040518163ffffffff1660e01b8152600401602060405180830381865afa15801561128a573d5f5f3e3d5ffd5b505050506040513d601f19601f820116820180604052508101906112ae9190611761565b60020b8152602001826001600160a01b0316638db791d26040518163ffffffff1660e01b8152600401602060405180830381865afa1580156112f2573d5f5f3e3d5ffd5b505050506040513d601f19601f820116820180604052508101906113169190611828565b6001600160a01b03168152602001826001600160a01b0316631a6865026040518163ffffffff1660e01b8152600401602060405180830381865afa158015611360573d5f5f3e3d5ffd5b505050506040513d601f19601f82011682018060405250810190611384919061188d565b6001600160801b03168152508786815181106113a2576113a261174d565b602002602001018190525084806113b8906118b3565b95505050600101610fc9565b5050600101610ee3565b50505090565b5f5f826001600160a01b0316846001600160a01b0316106113f65782846113f9565b83835b915091509250929050565b612ace806118cc83390190565b6001600160a01b0381168114611425575f5ffd5b50565b8060020b8114611425575f5ffd5b62ffffff81168114611425575f5ffd5b5f5f5f5f5f60a0868803121561145a575f5ffd5b853561146581611411565b9450602086013561147581611411565b9350604086013561148581611428565b9250606086013561149581611428565b915060808601356114a581611436565b809150509295509295909350565b5f5f5f606084860312156114c5575f5ffd5b83356114d081611411565b925060208401356114e081611411565b929592945050506040919091013590565b5f5f5f60608486031215611503575f5ffd5b833561150e81611411565b9250602084013561151e81611411565b9150604084013563ffffffff81168114611536575f5ffd5b809150509250925092565b602080825282518282018190525f918401906040840190835b8181101561159057835180516001600160a01b03908116855260209182015116818501529093019260409092019160010161155a565b509095945050505050565b5f602082840312156115ab575f5ffd5b5035919050565b5f60c08284031280156115c3575f5ffd5b509092915050565b602080825282518282018190525f918401906040840190835b8181101561159057835180516001600160a01b03168452602081015161161560208601826001600160a01b03169052565b50604081015161163060408601826001600160a01b03169052565b506060810151611648606086018263ffffffff169052565b50608081015161165f608086018262ffffff169052565b5060a081015161167460a086018260ff169052565b5060c081015161168960c086018260020b9052565b5060e081015161169e60e086018260020b9052565b506101008101516116b561010086018260020b9052565b506101208101516116d26101208601826001600160a01b03169052565b5061014081015190506116f16101408501826001600160801b03169052565b506020939093019261016092909201916001016115e4565b60208082526024908201527f546f6b656e4120616e6420546f6b656e422063616e6e6f74206265207468652060408201526373616d6560e01b606082015260800190565b634e487b7160e01b5f52603260045260245ffd5b5f60208284031215611771575f5ffd5b815161177c81611428565b9392505050565b5f60208284031215611793575f5ffd5b815161177c81611436565b6001600160a01b039586168152939094166020840152600291820b6040840152900b606082015262ffffff909116608082015260a00190565b5f602082840312156117e7575f5ffd5b813561177c81611411565b5f60208284031215611802575f5ffd5b813561177c81611428565b5f6020828403121561181d575f5ffd5b813561177c81611436565b5f60208284031215611838575f5ffd5b815161177c81611411565b634e487b7160e01b5f52601160045260245ffd5b63ffffffff818116838216019081111561187357611873611843565b92915050565b634e487b7160e01b5f52604160045260245ffd5b5f6020828403121561189d575f5ffd5b81516001600160801b038116811461177c575f5ffd5b5f600182016118c4576118c4611843565b506001019056fe610140604052348015610010575f5ffd5b50336001600160a01b031663890357306040518163ffffffff1660e01b815260040160c060405180830381865afa15801561004d573d5f5f3e3d5ffd5b505050506040513d601f19601f8201168201806040525081019061007191906100d0565b62ffffff1660e052600290810b610120520b610100526001600160a01b0390811660c05290811660a0521660805261014b565b80516001600160a01b03811681146100ba575f5ffd5b919050565b8051600281900b81146100ba575f5ffd5b5f5f5f5f5f5f60c087890312156100e5575f5ffd5b6100ee876100a4565b95506100fc602088016100a4565b945061010a604088016100a4565b9350610118606088016100bf565b9250610126608088016100bf565b915060a087015162ffffff8116811461013d575f5ffd5b809150509295509295509295565b60805160a05160c05160e05161010051610120516128e16101ed5f395f8181610278015281816105bb0152818161110a0152611c9601525f81816103230152818161058f015281816110d30152611cce01525f8181610403015261065101525f81816103dc015281816108bb01528181610bac0152611c4d01525f818161011a015281816109a401528181610b260152611a4001525f6103b501526128e15ff3fe608060405234801561000f575f5ffd5b5060043610610111575f3560e01c806360d49d531161009e578063c45a01551161006e578063c45a0155146103b0578063d21220a7146103d7578063ddca3f43146103fe578063f305839914610439578063f637731d14610442575f5ffd5b806360d49d53146103455780638db791d21461037857806390bc16931461038a57806392f026ad1461039d575f5ffd5b80633eaf5d9f116100e45780633eaf5d9f14610236578063461413191461025c57806355b812a81461027357806355f575101461029a57806359c4f9051461031e575f5ffd5b80630dfe168114610115578063128acb081461015957806316c19739146101815780631a6865021461020b575b5f5ffd5b61013c7f000000000000000000000000000000000000000000000000000000000000000081565b6040516001600160a01b0390911681526020015b60405180910390f35b61016c610167366004612517565b610457565b60408051928352602083019190915201610150565b6101d561018f366004612597565b6001600160a01b03165f9081526004602052604090208054600282015460038301546001909301546001600160801b0380841695929493600160801b9004811692911690565b604080516001600160801b039687168152602081019590955284019290925283166060830152909116608082015260a001610150565b60015461021e906001600160801b031681565b6040516001600160801b039091168152602001610150565b5f5461024990600160a01b900460020b81565b60405160029190910b8152602001610150565b61026560035481565b604051908152602001610150565b6102497f000000000000000000000000000000000000000000000000000000000000000081565b6102e56102a8366004612597565b60046020525f908152604090208054600182015460028301546003909301546001600160801b0380841694600160801b9094048116939216919085565b604080516001600160801b039687168152948616602086015292909416918301919091526060820152608081019190915260a001610150565b6102497f000000000000000000000000000000000000000000000000000000000000000081565b6103586103533660046125c8565b610a52565b604080516001600160801b03938416815292909116602083015201610150565b5f5461013c906001600160a01b031681565b61016c61039836600461260a565b610c39565b61016c6103ab366004612623565b610e4d565b61013c7f000000000000000000000000000000000000000000000000000000000000000081565b61013c7f000000000000000000000000000000000000000000000000000000000000000081565b6104257f000000000000000000000000000000000000000000000000000000000000000081565b60405162ffffff9091168152602001610150565b61026560025481565b610455610450366004612597565b611062565b005b5f5f855f036104925760405162461bcd60e51b8152602060048201526002602482015261415360f01b60448201526064015b60405180910390fd5b866104d5575f546001600160a01b039081169086161180156104d0575073fffd8963efd1fc6a506488495d951d5263988d266001600160a01b038616105b6104ff565b5f546001600160a01b039081169086161080156104ff57506401000276a36001600160a01b038616115b6105315760405162461bcd60e51b815260206004820152600360248201526214d41360ea1b6044820152606401610489565b6040805160e0810182528781525f6020820181905280546001600160a01b0316928201929092528188139190606081018a61056e57600354610572565b6002545b81526020015f81526020015f81526020015f81525090505f6105b37f00000000000000000000000000000000000000000000000000000000000000006111d7565b90505f6105df7f00000000000000000000000000000000000000000000000000000000000000006111d7565b90505f8b6105ed57816105ef565b825b5f54909150610675906001600160a01b03168d610620578b6001600160a01b0316836001600160a01b031611610636565b8b6001600160a01b0316836001600160a01b0316105b6106405782610642565b8b5b6001546001600160801b03168e7f000000000000000000000000000000000000000000000000000000000000000061148f565b60c088015260a087015260808601526001600160a01b0316604085018190525f80546001600160a01b031916821790556106ae906116a4565b5f805462ffffff92909216600160a01b0262ffffff60a01b1990921691909117905560c08401516001546106f19190600160801b906001600160801b0316611934565b846060018181516107029190612696565b9052508b15610718576060840151600255610721565b60608401516003555b841561077c576107438460c00151856080015161073e9190612696565b6119d1565b845185906107529083906126a9565b90525060a084015161077290610767906119d1565b6020860151906119e5565b60208501526107c8565b6107898460a001516119d1565b845185906107989083906126cf565b90525060c084015160808501516107c2916107b79161073e9190612696565b602086015190611a09565b60208501525b8415158c1515146107e957602084015184516107e4908d6126a9565b6107fb565b83516107f5908c6126a9565b84602001515b90975095508b156108ef575f61080f611a27565b604051637d241f3960e11b8152909150339063fa483e729061083b908b908b908f908f9060040161271e565b5f604051808303815f87803b158015610852575f5ffd5b505af1158015610864573d5f5f3e3d5ffd5b50505050610870611a27565b61087a828a611b20565b11156108ae5760405162461bcd60e51b815260206004820152600360248201526249494160e81b6044820152606401610489565b5f8712156108e9576108e97f00000000000000000000000000000000000000000000000000000000000000008f6108e48a612747565b611b39565b506109cf565b5f6108f8611c34565b604051637d241f3960e11b8152909150339063fa483e7290610924908b908b908f908f9060040161271e565b5f604051808303815f87803b15801561093b575f5ffd5b505af115801561094d573d5f5f3e3d5ffd5b50505050610959611c34565b6109638289611b20565b11156109975760405162461bcd60e51b815260206004820152600360248201526249494160e81b6044820152606401610489565b5f8812156109cd576109cd7f00000000000000000000000000000000000000000000000000000000000000008f6108e48b612747565b505b5f54600154604080518a8152602081018a90526001600160a01b03808516828401526001600160801b039093166060820152600160a01b90930460020b608084015251908f169133917fc42079f94a6350d7e6235f29174924f928cc2ac818eb64fed8004e115fbcca679181900360a00190a35050505050965096945050505050565b335f90815260046020526040812080548291906001600160801b03600160801b909104811690861611610a855784610a98565b8054600160801b90046001600160801b03165b60018201549093506001600160801b0390811690851611610ab95783610ac8565b60018101546001600160801b03165b91506001600160801b03831615610b5557805483908290601090610afd908490600160801b90046001600160801b0316612761565b92506101000a8154816001600160801b0302191690836001600160801b03160217905550610b557f000000000000000000000000000000000000000000000000000000000000000087856001600160801b0316611b39565b6001600160801b03821615610bdb576001810180548391905f90610b839084906001600160801b0316612761565b92506101000a8154816001600160801b0302191690836001600160801b03160217905550610bdb7f000000000000000000000000000000000000000000000000000000000000000087846001600160801b0316611b39565b604080516001600160a01b03881681526001600160801b038581166020830152841681830152905133917f38c069c2e9bc192f8cf4f1b85be791ccc0d04bb12c4ca71a3fbfe96ea0932dd5919081900360600190a250935093915050565b5f5f5f836001600160801b031611610c9e5760405162461bcd60e51b815260206004820152602260248201527f4275726e20616d6f756e74206d7573742062652067726561746572207468616e604482015261020360f41b6064820152608401610489565b335f908152600460205260409020546001600160801b039081169084161115610d095760405162461bcd60e51b815260206004820152601d60248201527f4275726e20616d6f756e742065786365656473206c69717569646974790000006044820152606401610489565b5f5f610d3c6040518060400160405280336001600160a01b0316815260200187610d3290612780565b600f0b9052611c7f565b9150915081610d4a90612747565b9350610d5581612747565b92505f841180610d6457505f83115b15610dfa57335f90815260046020526040902054610d93908590600160801b90046001600160801b03166127ad565b335f90815260046020526040902060010154610db99085906001600160801b03166127ad565b335f9081526004602052604090206001810180546001600160801b0319166001600160801b0393841617905580548216600160801b93909216929092021790555b604080516001600160801b03871681526020810186905290810184905233907fd4885a46e0c2f00ffdf2adb97a3909fd129dc1acccead462f7e29e6f18e54ec19060600160405180910390a25050915091565b5f5f5f856001600160801b031611610eb25760405162461bcd60e51b815260206004820152602260248201527f4d696e7420616d6f756e74206d7573742062652067726561746572207468616e604482015261020360f41b6064820152608401610489565b5f5f610edd60405180604001604052808a6001600160a01b0316815260200189600f0b815250611c7f565b90945092508391508290505f808315610efb57610ef8611a27565b91505b8415610f0c57610f09611c34565b90505b604051639f382e9b60e01b81523390639f382e9b90610f3590899089908d908d9060040161271e565b5f604051808303815f87803b158015610f4c575f5ffd5b505af1158015610f5e573d5f5f3e3d5ffd5b505050505f861115610faf57610f72611a27565b610f7c8388611b20565b1115610faf5760405162461bcd60e51b815260206004820152600260248201526104d360f41b6044820152606401610489565b8415610ffa57610fbd611c34565b610fc78287611b20565b1115610ffa5760405162461bcd60e51b81526020600482015260026024820152614d3160f01b6044820152606401610489565b604080513381526001600160801b038b166020820152908101879052606081018690526001600160a01b038b16907f011d4be6213866bff035f68967364cf69c5c01ff5bc23ff0a275f08a04381e6a9060800160405180910390a25050505094509492505050565b5f546001600160a01b0316156110a85760405162461bcd60e51b815260206004820152600b60248201526a125392551250531256915160aa1b6044820152606401610489565b6110b1816116a4565b5f805462ffffff60a01b1916600160a01b62ffffff93909316830217908190557f0000000000000000000000000000000000000000000000000000000000000000600290810b92909104900b1280159061113a57505f547f0000000000000000000000000000000000000000000000000000000000000000600290810b600160a01b909204900b125b6111b65760405162461bcd60e51b815260206004820152604160248201527f7371727450726963655839362073686f756c642062652077697468696e20746860448201527f652072616e6765206f66205b7469636b4c6f7765722c207469636b55707065726064820152602960f81b608482015260a401610489565b5f80546001600160a01b0319166001600160a01b0392909216919091179055565b60020b5f60ff82901d80830118620d89e8811115611200576112006345c3193d60e11b84611eb8565b7001fffcb933bd6fad37aa2d162d1a5940016001821602600160801b18600282161561123c576ffff97272373d413259a46990580e213a0260801c5b600482161561125b576ffff2e50f5f656932ef12357cf3c7fdcc0260801c5b600882161561127a576fffe5caca7e10e4e61c3624eaa0941cd00260801c5b6010821615611299576fffcb9843d60f6159c9db58835c9266440260801c5b60208216156112b8576fff973b41fa98c081472e6896dfb254c00260801c5b60408216156112d7576fff2ea16466c96a3843ec78b326b528610260801c5b60808216156112f6576ffe5dee046a99a2a811c461f1969c30530260801c5b610100821615611316576ffcbe86c7900a88aedcffc83b479aa3a40260801c5b610200821615611336576ff987a7253ac413176f2b074cf7815e540260801c5b610400821615611356576ff3392b0822b70005940c7a398e4b70f30260801c5b610800821615611376576fe7159475a2c29b7443b29c7fa6e889d90260801c5b611000821615611396576fd097f3bdfd2022b8845ad8f792aa58250260801c5b6120008216156113b6576fa9f746462d870fdf8a65dc1f90e061e50260801c5b6140008216156113d6576f70d869a156d2a1b890bb3df62baf32f70260801c5b6180008216156113f6576f31be135f97d08fd981231505542fcfa60260801c5b62010000821615611417576f09aa508b5b7a84e1c677de54f3e99bc90260801c5b62020000821615611437576e5d6af8dedb81196699c329225ee6040260801c5b62040000821615611456576d2216e584f5fa1ea926041bedfe980260801c5b62080000821615611473576b048a170391f7dc42444e8fa20260801c5b5f84131561147f575f19045b63ffffffff0160201c9392505050565b5f8080806001600160a01b03808916908a161015818712801590611519575f6114cd896114bf8a620f42406127cc565b62ffffff16620f4240611934565b9050826114e6576114e18c8c8c6001611ec7565b6114f3565b6114f38b8d8c6001611f4f565b9550858110611504578a9650611513565b6115108c8b8386612012565b96505b5061156b565b8161152f5761152a8b8b8b5f611f4f565b61153b565b61153b8a8c8b5f611ec7565b93508361154789612747565b106115545789955061156b565b6115688b8a6115628b612747565b8561205a565b95505b6001600160a01b038a81169087161482156115cd5780801561158a5750815b6115a05761159b878d8c6001611f4f565b6115a2565b855b95508080156115af575081155b6115c4576115bf878d8c5f611ec7565b6115c6565b845b9450611616565b8080156115d75750815b6115ed576115e88c888c6001611ec7565b6115ef565b855b95508080156115fc575081155b6116115761160c8c888c5f611f4f565b611613565b845b94505b8115801561162b575061162889612747565b85115b1561163c5761163989612747565b94505b81801561165b57508a6001600160a01b0316876001600160a01b031614155b156116715761166a868a6127e7565b9350611695565b6116928662ffffff8a166116888b620f42406127cc565b62ffffff166120a0565b93505b50505095509550955095915050565b5f73fffd8963efd1fc6a506488495d951d51639616826401000276a21983016001600160a01b031611156116e3576116e36318521d4960e21b836120d0565b640100000000600160c01b03602083901b16805f611700826120e5565b60ff1690506080811061171b57607f810383901c9150611725565b80607f0383901b91505b908002607f81811c60ff83811c9190911c800280831c81831c1c800280841c81841c1c800280851c81851c1c800280861c81861c1c800280871c81871c1c800280881c81881c1c800280891c81891c1c8002808a1c818a1c1c8002808b1c818b1c1c8002808c1c818c1c1c8002808d1c818d1c1c8002808e1c9c81901c9c909c1c80029c8d901c9e9d607f198f0160401b60c09190911c678000000000000000161760c19b909b1c674000000000000000169a909a1760c29990991c672000000000000000169890981760c39790971c671000000000000000169690961760c49590951c670800000000000000169490941760c59390931c670400000000000000169290921760c69190911c670200000000000000161760c79190911c670100000000000000161760c89190911c6680000000000000161760c99190911c6640000000000000161760ca9190911c6620000000000000161760cb9190911c6610000000000000161760cc9190911c6608000000000000161760cd9190911c66040000000000001617693627a301d71055774c8581026f028f6481ab7f045a5af012a19d003aa9198101608090811d906fdb2df09e81959a81455e260799a0632f8301901d600281810b9083900b1461192557886001600160a01b031661190a826111d7565b6001600160a01b0316111561191f5781611927565b80611927565b815b9998505050505050505050565b5f838302815f1985870982811083820303915050808411611953575f5ffd5b805f03611965575082900490506119ca565b5f848688095f868103871696879004966002600389028118808a02820302808a02820302808a02820302808a02820302808a02820302808a02909103029181900381900460010186841190950394909402919094039290920491909117919091029150505b9392505050565b5f600160ff1b82106119e1575f5ffd5b5090565b5f80821215836119f584826126a9565b925082131514611a03575f5ffd5b92915050565b5f8082121583611a1984826126cf565b925082121514611a03575f5ffd5b6040513060248201525f90819081906001600160a01b037f000000000000000000000000000000000000000000000000000000000000000016906370a0823160e01b906044015b60408051601f198184030181529181526020820180516001600160e01b03166001600160e01b0319909416939093179092529051611aac91906127fa565b5f60405180830381855afa9150503d805f8114611ae4576040519150601f19603f3d011682016040523d82523d5f602084013e611ae9565b606091505b5091509150818015611afd57506020815110155b611b05575f5ffd5b80806020019051810190611b199190612810565b9250505090565b5f82611b2c8382612696565b9150811015611a03575f5ffd5b604080516001600160a01b038481166024830152604480830185905283518084039091018152606490920183526020820180516001600160e01b031663a9059cbb60e01b17905291515f92839290871691611b9491906127fa565b5f604051808303815f865af19150503d805f8114611bcd576040519150601f19603f3d011682016040523d82523d5f602084013e611bd2565b606091505b5091509150818015611bfc575080511580611bfc575080806020019051810190611bfc9190612827565b611c2d5760405162461bcd60e51b81526020600482015260026024820152612a2360f11b6044820152606401610489565b5050505050565b6040513060248201525f90819081906001600160a01b037f000000000000000000000000000000000000000000000000000000000000000016906370a0823160e01b90604401611a6e565b5f80548190611cc4906001600160a01b0316611cba7f00000000000000000000000000000000000000000000000000000000000000006111d7565b8560200151612170565b9150611d0a611cf27f00000000000000000000000000000000000000000000000000000000000000006111d7565b5f5460208601516001600160a01b03909116906121b0565b83516001600160a01b03165f90815260046020526040812060028082015490549394509092611d5191611d3c916127e7565b83546001600160801b0316600160801b611934565b90505f611d7e8360030154600354611d6991906127e7565b84546001600160801b0316600160801b611934565b6002805490850155600380549085015590506001600160801b038216151580611daf57505f816001600160801b0316115b15611e4657825482908490601090611dd8908490600160801b90046001600160801b03166127ad565b92506101000a8154816001600160801b0302191690836001600160801b0316021790555080836001015f8282829054906101000a90046001600160801b0316611e2191906127ad565b92506101000a8154816001600160801b0302191690836001600160801b031602179055505b6001546020870151611e61916001600160801b0316906121e2565b600180546001600160801b0319166001600160801b0392831617905583546020880151611e929291909116906121e2565b83546001600160801b0319166001600160801b0391909116179092555091939092509050565b815f528060020b60045260245ffd5b5f836001600160a01b0316856001600160a01b03161115611ee6579293925b81611f1a57611f156001600160801b038416611f028787612842565b6001600160a01b0316600160601b611934565b611f44565b611f446001600160801b038416611f318787612842565b6001600160a01b0316600160601b6120a0565b90505b949350505050565b5f836001600160a01b0316856001600160a01b03161115611f6e579293925b600160601b600160e01b03606084901b165f611f8a8787612842565b6001600160a01b031690505f876001600160a01b031611611fa9575f5ffd5b83611fdb57866001600160a01b0316611fcc8383896001600160a01b0316611934565b611fd69190612875565b612007565b612007611ff28383896001600160a01b03166120a0565b886001600160a01b0316808204910615150190565b979650505050505050565b5f5f856001600160a01b031611612027575f5ffd5b5f846001600160801b03161161203b575f5ffd5b8161204d57611f1585858560016122a1565b611f448585856001612384565b5f5f856001600160a01b03161161206f575f5ffd5b5f846001600160801b031611612083575f5ffd5b8161209457611f158585855f612384565b611f448585855f6122a1565b5f6120ac848484611934565b905081806120bc576120bc612861565b838509156119ca57600101806119ca575f5ffd5b815f526001600160a01b03811660045260245ffd5b5f5f82116120f1575f5ffd5b507f0706060506020500060203020504000106050205030304010505030400000000601f6f8421084210842108cc6318c6db6d54be6001600160801b03841160071b84811c67ffffffffffffffff1060061b1784811c63ffffffff1060051b1784811c61ffff1060041b1784811c60ff1060031b1793841c1c161a1790565b5f5f82600f0b126121905761218b61073e8585856001611f4f565b611f47565b6121a761073e85856121a186612780565b5f611f4f565b611f4790612747565b5f5f82600f0b126121cb5761218b61073e8585856001611ec7565b6121a761073e85856121dc86612780565b5f611ec7565b5f5f82600f0b121561224e576001600160801b03831661220183612780565b61220b9085612761565b9150816001600160801b0316106122495760405162461bcd60e51b81526020600482015260026024820152614c5360f01b6044820152606401610489565b611a03565b6001600160801b03831661226283856127ad565b9150816001600160801b03161015611a035760405162461bcd60e51b81526020600482015260026024820152614c4160f01b6044820152606401610489565b5f8115612311575f6001600160a01b038411156122d5576122d084600160601b876001600160801b0316611934565b6122ec565b6122ec6001600160801b038616606086901b612875565b90506123096123046001600160a01b03881683611b20565b612494565b915050611f47565b5f6001600160a01b0384111561233e5761233984600160601b876001600160801b03166120a0565b61235b565b61235b606085901b6001600160801b038716808204910615150190565b905080866001600160a01b031611612371575f5ffd5b612309816001600160a01b0388166127e7565b5f825f03612393575083611f47565b600160601b600160e01b03606085901b16821561243a575f6001600160a01b038716856123c08282612894565b92506123cc9083612875565b03612405575f6123dc8284612696565b9050828110612403576123f983896001600160a01b0316836120a0565b9350505050611f47565b505b61243182612426876124206001600160a01b038c1684612875565b90611b20565b808204910615150190565b92505050611f47565b5f6001600160a01b038716856124508282612894565b925061245c9083612875565b14801561246857508082115b612470575f5ffd5b5f61247b82846127e7565b90506123f9612304848a6001600160a01b0316846120a0565b806001600160a01b03811681146124a9575f5ffd5b919050565b6001600160a01b03811681146124c2575f5ffd5b50565b80151581146124c2575f5ffd5b5f5f83601f8401126124e2575f5ffd5b50813567ffffffffffffffff8111156124f9575f5ffd5b602083019150836020828501011115612510575f5ffd5b9250929050565b5f5f5f5f5f5f60a0878903121561252c575f5ffd5b8635612537816124ae565b95506020870135612547816124c5565b945060408701359350606087013561255e816124ae565b9250608087013567ffffffffffffffff811115612579575f5ffd5b61258589828a016124d2565b979a9699509497509295939492505050565b5f602082840312156125a7575f5ffd5b81356119ca816124ae565b80356001600160801b03811681146124a9575f5ffd5b5f5f5f606084860312156125da575f5ffd5b83356125e5816124ae565b92506125f3602085016125b2565b9150612601604085016125b2565b90509250925092565b5f6020828403121561261a575f5ffd5b6119ca826125b2565b5f5f5f5f60608587031215612636575f5ffd5b8435612641816124ae565b935061264f602086016125b2565b9250604085013567ffffffffffffffff81111561266a575f5ffd5b612676878288016124d2565b95989497509550505050565b634e487b7160e01b5f52601160045260245ffd5b80820180821115611a0357611a03612682565b8181035f8312801583831316838312821617156126c8576126c8612682565b5092915050565b8082018281125f8312801582168215821617156126ee576126ee612682565b505092915050565b81835281816020850137505f828201602090810191909152601f909101601f19169091010190565b848152836020820152606060408201525f61273d6060830184866126f6565b9695505050505050565b5f600160ff1b820161275b5761275b612682565b505f0390565b6001600160801b038281168282160390811115611a0357611a03612682565b5f81600f0b6f7fffffffffffffffffffffffffffffff1981036127a5576127a5612682565b5f0392915050565b6001600160801b038181168382160190811115611a0357611a03612682565b62ffffff8281168282160390811115611a0357611a03612682565b81810381811115611a0357611a03612682565b5f82518060208501845e5f920191825250919050565b5f60208284031215612820575f5ffd5b5051919050565b5f60208284031215612837575f5ffd5b81516119ca816124c5565b6001600160a01b038281168282160390811115611a0357611a03612682565b634e487b7160e01b5f52601260045260245ffd5b5f8261288f57634e487b7160e01b5f52601260045260245ffd5b500490565b8082028115828204841417611a0357611a0361268256fea2646970667358221220ee149c52a00e31004224de8cbe51a0eca6abba8713068170e22510fe8d5300be64736f6c634300081c0033a26469706673582212208d2d2965337868449520b2d3cd02d23fbffdca6ede543eca1f3910352c6845bb64736f6c634300081c0033",
  "linkReferences": {},
  "deployedLinkReferences": {},
  "immutableReferences": {},
  "inputSourceName": "project/contracts/PoolManager.sol",
  "buildInfoId": "solc-0_8_28-50bc1bb98e1255823da92352d80cbc0e6d010e0f"
}