{
  "_format": "hh3-artifact-1",
  "contractName": "SwapRouter",
  "sourceName": "contracts/SwapRouter.sol",
  "abi": [
    {
      "inputs": [
        {
          "internalType": "address",
          "name": "_poolManager",
          "type": "address"
        }
      ],
      "stateMutability": "nonpayable",
      "type": "constructor"
    },
    {
      "anonymous": false,
      "inputs": [
        {
          "indexed": true,
          "internalType": "address",
          "name": "sender",
          "type": "address"
        },
        {
          "indexed": false,
          "internalType": "bool",
          "name": "zeroForOne",
          "type": "bool"
        },
        {
          "indexed": false,
          "internalType": "uint256",
          "name": "amountIn",
          "type": "uint256"
        },
        {
          "indexed": false,
          "internalType": "uint256",
          "name": "amountInRemaining",
          "type": "uint256"
        },
        {
          "indexed": false,
          "internalType": "uint256",
          "name": "amountOut",
          "type": "uint256"
        }
      ],
      "name": "Swap",
      "type": "event"
    },
    {
      "inputs": [
        {
          "components": [
            {
              "internalType": "address",
              "name": "tokenIn",
              "type": "address"
            },
            {
              "internalType": "address",
              "name": "tokenOut",
              "type": "address"
            },
            {
              "internalType": "uint32[]",
              "name": "indexPath",
              "type": "uint32[]"
            },
            {
              "internalType": "address",
              "name": "recipient",
              "type": "address"
            },
            {
              "internalType": "uint256",
              "name": "deadline",
              "type": "uint256"
            },
            {
              "internalType": "uint256",
              "name": "amountIn",
              "type": "uint256"
            },
            {
              "internalType": "uint256",
              "name": "amountOutMinimum",
              "type": "uint256"
            },
            {
              "internalType": "uint160",
              "name": "sqrtPriceLimitX96",
              "type": "uint160"
            }
          ],
          "internalType": "struct ISwapRouter.ExactInputParams",
          "name": "params",
          "type": "tuple"
        }
      ],
      "name": "exactInput",
      "outputs": [
        {
          "internalType": "uint256",
          "name": "amountOut",
          "type": "uint256"
        }
      ],
      "stateMutability": "payable",
      "type": "function"
    },
    {
      "inputs": [
        {
          "components": [
            {
              "internalType": "address",
              "name": "tokenIn",
              "type": "address"
            },
            {
              "internalType": "address",
              "name": "tokenOut",
              "type": "address"
            },
            {
              "internalType": "uint32[]",
              "name": "indexPath",
              "type": "uint32[]"
            },
            {
              "internalType": "address",
              "name": "recipient",
              "type": "address"
            },
            {
              "internalType": "uint256",
              "name": "deadline",
              "type": "uint256"
            },
            {
              "internalType": "uint256",
              "name": "amountOut",
              "type": "uint256"
            },
            {
              "internalType": "uint256",
              "name": "amountInMaximum",
              "type": "uint256"
            },
            {
              "internalType": "uint160",
              "name": "sqrtPriceLimitX96",
              "type": "uint160"
            }
          ],
          "internalType": "struct ISwapRouter.ExactOutputParams",
          "name": "params",
          "type": "tuple"
        }
      ],
      "name": "exactOutput",
      "outputs": [
        {
          "internalType": "uint256",
          "name": "amountIn",
          "type": "uint256"
        }
      ],
      "stateMutability": "payable",
      "type": "function"
    },
    {
      "inputs": [],
      "name": "poolManager",
      "outputs": [
        {
          "internalType": "contract IPoolManager",
          "name": "",
          "type": "address"
        }
      ],
      "stateMutability": "view",
      "type": "function"
    },
    {
      "inputs": [
        {
          "components": [
            {
              "internalType": "address",
              "name": "tokenIn",
              "type": "address"
            },
            {
              "internalType": "address",
              "name": "tokenOut",
              "type": "address"
            },
            {
              "internalType": "uint32[]",
              "name": "indexPath",
              "type": "uint32[]"
            },
            {
              "internalType": "uint256",
              "name": "amountIn",
              "type": "uint256"
            },
            {
              "internalType": "uint160",
              "name": "sqrtPriceLimitX96",
              "type": "uint160"
            }
          ],
          "internalType": "struct ISwapRouter.QuoteExactInputParams",
          "name": "params",
          "type": "tuple"
        }
      ],
      "name": "quoteExactInput",
      "outputs": [
        {
          "internalType": "uint256",
          "name": "amountOut",
          "type": "uint256"
        }
      ],
      "stateMutability": "nonpayable",
      "type": "function"
    },
    {
      "inputs": [
        {
          "components": [
            {
              "internalType": "address",
              "name": "tokenIn",
              "type": "address"
            },
            {
              "internalType": "address",
              "name": "tokenOut",
              "type": "address"
            },
            {
              "internalType": "uint32[]",
              "name": "indexPath",
              "type": "uint32[]"
            },
            {
              "internalType": "uint256",
              "name": "amountOut",
              "type": "uint256"
            },
            {
              "internalType": "uint160",
              "name": "sqrtPriceLimitX96",
              "type": "uint160"
            }
          ],
          "internalType": "struct ISwapRouter.QuoteExactOutputParams",
          "name": "params",
          "type": "tuple"
        }
      ],
      "name": "quoteExactOutput",
      "outputs": [
        {
          "internalType": "uint256",
          "name": "amountIn",
          "type": "uint256"
        }
      ],
      "stateMutability": "nonpayable",
      "type": "function"
    },
    {
      "inputs": [
        {
          "internalType": "int256",
          "name": "amount0Delta",
          "type": "int256"
        },
        {
          "internalType": "int256",
          "name": "amount1Delta",
          "type": "int256"
        },
        {
          "internalType": "bytes",
          "name": "data",
          "type": "bytes"
        }
      ],
      "name": "swapCallback",
      "outputs": [],
      "stateMutability": "nonpayable",
      "type": "function"
    },
    {
      "inputs": [
        {
          "internalType": "contract IPool",
          "name": "pool",
          "type": "address"
        },
        {
          "internalType": "address",
          "name": "recipient",
          "type": "address"
        },
        {
          "internalType": "bool",
          "name": "zeroForOne",
          "type": "bool"
        },
        {
          "internalType": "int256",
          "name": "amountSpecified",
          "type": "int256"
        },
        {
          "internalType": "uint160",
          "name": "sqrtPriceLimitX96",
          "type": "uint160"
        },
        {
          "internalType": "bytes",
          "name": "data",
          "type": "bytes"
        }
      ],
      "name": "swapInPool",
      "outputs": [
        {
          "internalType": "int256",
          "name": "amount0",
          "type": "int256"
        },
        {
          "internalType": "int256",
          "name": "amount1",
          "type": "int256"
        }
      ],
      "stateMutability": "nonpayable",
      "type": "function"
    }
  ],
  "bytecode": "0x6080604052348015600e575f5ffd5b506040516114b13803806114b1833981016040819052602b91604e565b5f80546001600160a01b0319166001600160a01b03929092169190911790556079565b5f60208284031215605d575f5ffd5b81516001600160a01b03811681146072575f5ffd5b9392505050565b61142b806100865f395ff3fe60806040526004361061006e575f3560e01c8063a8a590fd1161004c578063a8a590fd146100eb578063ae5ab5e1146100fe578063dc4c90d31461011d578063fa483e7214610153575f5ffd5b80633439aade14610072578063393dd1da146100a45780636c207ad0146100d8575b5f5ffd5b34801561007d575f5ffd5b5061009161008c366004610da7565b610174565b6040519081526020015b60405180910390f35b3480156100af575f5ffd5b506100c36100be366004610e4a565b6102ac565b6040805192835260208301919091520161009b565b6100916100e6366004610eed565b610375565b6100916100f9366004610eed565b610724565b348015610109575f5ffd5b50610091610118366004610da7565b610a80565b348015610128575f5ffd5b505f5461013b906001600160a01b031681565b6040516001600160a01b03909116815260200161009b565b34801561015e575f5ffd5b5061017261016d366004610f1f565b610b4b565b005b6040805161010081019091525f903090636c207ad090806101986020870187610f6e565b6001600160a01b031681526020018560200160208101906101b99190610f6e565b6001600160a01b031681526020016101d46040870187610f90565b808060200260200160405190810160405280939291908181526020018383602002808284375f920182905250938552505050602082015260400161021a42610e10610fea565b815260608087013560208301525f60408301520161023e60a0870160808801610f6e565b6001600160a01b03168152506040518263ffffffff1660e01b815260040161026691906110d4565b6020604051808303815f875af1158015610282573d5f5f3e3d5ffd5b505050506040513d601f19601f820116820180604052508101906102a691906110e6565b92915050565b5f5f886001600160a01b031663128acb088989898989896040518763ffffffff1660e01b81526004016102e4969594939291906110fd565b60408051808303815f875af192505050801561031d575060408051601f3d908101601f1916820190925261031a91810190611156565b60015b610363573d80801561034a576040519150601f19603f3d011682016040523d82523d5f602084013e61034f565b606091505b5061035981610cf1565b9250925050610369565b90925090505b97509795505050505050565b5f60a08201358161038c6040850160208601610f6e565b6001600160a01b03166103a26020860186610f6e565b6001600160a01b03161090505f5b6103bd6040860186610f90565b9050811015610685575f80546001600160a01b03166371c54fc96103e46020890189610f6e565b6103f460408a0160208b01610f6e565b61040160408b018b610f90565b8781811061041157610411611178565b905060200201602081019061042691906111a4565b6040518463ffffffff1660e01b8152600401610444939291906111bd565b602060405180830381865afa15801561045f573d5f5f3e3d5ffd5b505050506040513d601f19601f8201168201806040525081019061048391906111e6565b90506001600160a01b0381166104d15760405162461bcd60e51b815260206004820152600e60248201526d141bdbdb081b9bdd08199bdd5b9960921b60448201526064015b60405180910390fd5b805f6104e06020890189610f6e565b6104f060408a0160208b01610f6e565b6104fd60408b018b610f90565b8781811061050d5761050d611178565b905060200201602081019061052291906111a4565b5f61053360808d0160608e01610f6e565b6001600160a01b0316146105475733610549565b5f5b604080516001600160a01b0395861660208201529385169084015263ffffffff909116606083015291909116608082015260a00160408051601f1981840301815291905290505f803063393dd1da856105a860808e0160608f01610f6e565b8a8c8f60e00160208101906105bd9190610f6e565b896040518763ffffffff1660e01b81526004016105df9695949392919061122f565b60408051808303815f875af11580156105fa573d5f5f3e3d5ffd5b505050506040513d601f19601f8201168201806040525081019061061e9190611156565b915091508661062d578061062f565b815b610639908961127d565b97508661064e5761064982611290565b610657565b61065781611290565b610661908a610fea565b9850875f03610674575050505050610685565b5050600190930192506103b0915050565b508360c001358310156106ce5760405162461bcd60e51b815260206004820152601160248201527014db1a5c1c1859d948195e18d959591959607a1b60448201526064016104c8565b60408051821515815260a086013560208201529081018390526060810184905233907f176648f1f11cda284c124490086be42a926ddf0ae887ebe7b1d6b337d89427569060800160405180910390a25050919050565b5f60a08201358161073b6040850160208601610f6e565b6001600160a01b03166107516020860186610f6e565b6001600160a01b03161090505f5b61076c6040860186610f90565b9050811015610a37575f80546001600160a01b03166371c54fc96107936020890189610f6e565b6107a360408a0160208b01610f6e565b6107b060408b018b610f90565b878181106107c0576107c0611178565b90506020020160208101906107d591906111a4565b6040518463ffffffff1660e01b81526004016107f3939291906111bd565b602060405180830381865afa15801561080e573d5f5f3e3d5ffd5b505050506040513d601f19601f8201168201806040525081019061083291906111e6565b90506001600160a01b03811661087b5760405162461bcd60e51b815260206004820152600e60248201526d141bdbdb081b9bdd08199bdd5b9960921b60448201526064016104c8565b805f61088a6020890189610f6e565b61089a60408a0160208b01610f6e565b6108a760408b018b610f90565b878181106108b7576108b7611178565b90506020020160208101906108cc91906111a4565b5f6108dd60808d0160608e01610f6e565b6001600160a01b0316146108f157336108f3565b5f5b604080516001600160a01b0395861660208201529385169084015263ffffffff909116606083015291909116608082015260a00160408051601f1981840301815291905290505f803063393dd1da8561095260808e0160608f01610f6e565b8a61095c8d611290565b8f60e001602081019061096f9190610f6e565b896040518763ffffffff1660e01b81526004016109919695949392919061122f565b60408051808303815f875af11580156109ac573d5f5f3e3d5ffd5b505050506040513d601f19601f820116820180604052508101906109d09190611156565b91509150866109e7576109e282611290565b6109f0565b6109f081611290565b6109fa908961127d565b975086610a075780610a09565b815b610a13908a610fea565b9850875f03610a26575050505050610a37565b50506001909301925061075f915050565b508360c001358311156106ce5760405162461bcd60e51b815260206004820152601160248201527014db1a5c1c1859d948195e18d959591959607a1b60448201526064016104c8565b6040805161010081019091525f90309063a8a590fd9080610aa46020870187610f6e565b6001600160a01b03168152602001856020016020810190610ac59190610f6e565b6001600160a01b03168152602001610ae06040870187610f90565b808060200260200160405190810160405280939291908181526020018383602002808284375f9201829052509385525050506020820152604001610b2642610e10610fea565b815260608087013560208301525f1960408301520161023e60a0870160808801610f6e565b5f808080610b5b858701876112aa565b5f80546040516371c54fc960e01b81529599509397509195509350916001600160a01b03909116906371c54fc990610b9b908890889088906004016111bd565b602060405180830381865afa158015610bb6573d5f5f3e3d5ffd5b505050506040513d601f19601f82011682018060405250810190610bda91906111e6565b90506001600160a01b0381163314610c345760405162461bcd60e51b815260206004820152601760248201527f496e76616c69642063616c6c6261636b2063616c6c657200000000000000000060448201526064016104c8565b5f5f8a13610c425788610c44565b895b90506001600160a01b038316610c65576040518a8152896020820152604081fd5b8015610ce5576040516323b872dd60e01b81526001600160a01b0384811660048301528381166024830152604482018390528716906323b872dd906064016020604051808303815f875af1158015610cbf573d5f5f3e3d5ffd5b505050506040513d601f19601f82011682018060405250810190610ce39190611301565b505b50505050505050505050565b5f5f8251604014610d7457604483511015610d415760405162461bcd60e51b815260206004820152601060248201526f2ab732bc3832b1ba32b21032b93937b960811b60448201526064016104c8565b60048301925082806020019051810190610d5b9190611330565b60405162461bcd60e51b81526004016104c891906113e3565b82806020019051810190610d889190611156565b91509150915091565b5f60a08284031215610da1575f5ffd5b50919050565b5f60208284031215610db7575f5ffd5b813567ffffffffffffffff811115610dcd575f5ffd5b610dd984828501610d91565b949350505050565b6001600160a01b0381168114610df5575f5ffd5b50565b8015158114610df5575f5ffd5b5f5f83601f840112610e15575f5ffd5b50813567ffffffffffffffff811115610e2c575f5ffd5b602083019150836020828501011115610e43575f5ffd5b9250929050565b5f5f5f5f5f5f5f60c0888a031215610e60575f5ffd5b8735610e6b81610de1565b96506020880135610e7b81610de1565b95506040880135610e8b81610df8565b9450606088013593506080880135610ea281610de1565b925060a088013567ffffffffffffffff811115610ebd575f5ffd5b610ec98a828b01610e05565b989b979a50959850939692959293505050565b5f6101008284031215610da1575f5ffd5b5f60208284031215610efd575f5ffd5b813567ffffffffffffffff811115610f13575f5ffd5b610dd984828501610edc565b5f5f5f5f60608587031215610f32575f5ffd5b8435935060208501359250604085013567ffffffffffffffff811115610f56575f5ffd5b610f6287828801610e05565b95989497509550505050565b5f60208284031215610f7e575f5ffd5b8135610f8981610de1565b9392505050565b5f5f8335601e19843603018112610fa5575f5ffd5b83018035915067ffffffffffffffff821115610fbf575f5ffd5b6020019150600581901b3603821315610e43575f5ffd5b634e487b7160e01b5f52601160045260245ffd5b808201808211156102a6576102a6610fd6565b5f8151808452602084019350602083015f5b8281101561103357815163ffffffff1686526020958601959091019060010161100f565b5093949350505050565b60018060a01b03815116825260018060a01b0360208201511660208301525f60408201516101006040850152611077610100850182610ffd565b9050606083015161109360608601826001600160a01b03169052565b506080830151608085015260a083015160a085015260c083015160c085015260e08301516110cc60e08601826001600160a01b03169052565b509392505050565b602081525f610f89602083018461103d565b5f602082840312156110f6575f5ffd5b5051919050565b6001600160a01b0387811682528615156020830152604082018690528416606082015260a0608082018190528101829052818360c08301375f81830160c090810191909152601f909201601f1916010195945050505050565b5f5f60408385031215611167575f5ffd5b505080516020909101519092909150565b634e487b7160e01b5f52603260045260245ffd5b803563ffffffff8116811461119f575f5ffd5b919050565b5f602082840312156111b4575f5ffd5b610f898261118c565b6001600160a01b03938416815291909216602082015263ffffffff909116604082015260600190565b5f602082840312156111f6575f5ffd5b8151610f8981610de1565b5f81518084528060208401602086015e5f602082860101526020601f19601f83011685010191505092915050565b6001600160a01b03878116825286811660208301528515156040830152606082018590528316608082015260c060a082018190525f9061127190830184611201565b98975050505050505050565b818103818111156102a6576102a6610fd6565b5f600160ff1b82016112a4576112a4610fd6565b505f0390565b5f5f5f5f608085870312156112bd575f5ffd5b84356112c881610de1565b935060208501356112d881610de1565b92506112e66040860161118c565b915060608501356112f681610de1565b939692955090935050565b5f60208284031215611311575f5ffd5b8151610f8981610df8565b634e487b7160e01b5f52604160045260245ffd5b5f60208284031215611340575f5ffd5b815167ffffffffffffffff811115611356575f5ffd5b8201601f81018413611366575f5ffd5b805167ffffffffffffffff8111156113805761138061131c565b604051601f8201601f19908116603f0116810167ffffffffffffffff811182821017156113af576113af61131c565b6040528181528282016020018610156113c6575f5ffd5b8160208401602083015e5f91810160200191909152949350505050565b602081525f610f89602083018461120156fea26469706673582212202175cdcb8062ee661e9aca37a535373ab1f4dda728de7beca759335dcdd669d564736f6c634300081c0033",
  "linkReferences": {},
  "deployedLinkReferences": {},
  "immutableReferences": {},
  "inputSourceName": "project/contracts/SwapRouter.sol",
  "buildInfoId": "solc-0_8_28-fa4a2e76efbe5f539461dd271669204a165fb378"
}