{
  "_format": "hh3-artifact-1",
  "contractName": "PositionManager",
  "sourceName": "contracts/PositionManager.sol",
  "abi": [
    {
      "inputs": [
        {
          "internalType": "address",
          "name": "_poolManger",
          "type": "address"
        }
      ],
      "stateMutability": "nonpayable",
      "type": "constructor"
    },
    {
      "inputs": [
        {
          "internalType": "address",
          "name": "sender",
          "type": "address"
        },
        {
          "internalType": "uint256",
          "name": "tokenId",
          "type": "uint256"
        },
        {
          "internalType": "address",
          "name": "owner",
          "type": "address"
        }
      ],
      "name": "ERC721IncorrectOwner",
      "type": "error"
    },
    {
      "inputs": [
        {
          "internalType": "address",
          "name": "operator",
          "type": "address"
        },
        {
          "internalType": "uint256",
          "name": "tokenId",
          "type": "uint256"
        }
      ],
      "name": "ERC721InsufficientApproval",
      "type": "error"
    },
    {
      "inputs": [
        {
          "internalType": "address",
          "name": "approver",
          "type": "address"
        }
      ],
      "name": "ERC721InvalidApprover",
      "type": "error"
    },
    {
      "inputs": [
        {
          "internalType": "address",
          "name": "operator",
          "type": "address"
        }
      ],
      "name": "ERC721InvalidOperator",
      "type": "error"
    },
    {
      "inputs": [
        {
          "internalType": "address",
          "name": "owner",
          "type": "address"
        }
      ],
      "name": "ERC721InvalidOwner",
      "type": "error"
    },
    {
      "inputs": [
        {
          "internalType": "address",
          "name": "receiver",
          "type": "address"
        }
      ],
      "name": "ERC721InvalidReceiver",
      "type": "error"
    },
    {
      "inputs": [
        {
          "internalType": "address",
          "name": "sender",
          "type": "address"
        }
      ],
      "name": "ERC721InvalidSender",
      "type": "error"
    },
    {
      "inputs": [
        {
          "internalType": "uint256",
          "name": "tokenId",
          "type": "uint256"
        }
      ],
      "name": "ERC721NonexistentToken",
      "type": "error"
    },
    {
      "anonymous": false,
      "inputs": [
        {
          "indexed": true,
          "internalType": "address",
          "name": "owner",
          "type": "address"
        },
        {
          "indexed": true,
          "internalType": "address",
          "name": "approved",
          "type": "address"
        },
        {
          "indexed": true,
          "internalType": "uint256",
          "name": "tokenId",
          "type": "uint256"
        }
      ],
      "name": "Approval",
      "type": "event"
    },
    {
      "anonymous": false,
      "inputs": [
        {
          "indexed": true,
          "internalType": "address",
          "name": "owner",
          "type": "address"
        },
        {
          "indexed": true,
          "internalType": "address",
          "name": "operator",
          "type": "address"
        },
        {
          "indexed": false,
          "internalType": "bool",
          "name": "approved",
          "type": "bool"
        }
      ],
      "name": "ApprovalForAll",
      "type": "event"
    },
    {
      "anonymous": false,
      "inputs": [
        {
          "indexed": true,
          "internalType": "address",
          "name": "from",
          "type": "address"
        },
        {
          "indexed": true,
          "internalType": "address",
          "name": "to",
          "type": "address"
        },
        {
          "indexed": true,
          "internalType": "uint256",
          "name": "tokenId",
          "type": "uint256"
        }
      ],
      "name": "Transfer",
      "type": "event"
    },
    {
      "inputs": [
        {
          "internalType": "address",
          "name": "to",
          "type": "address"
        },
        {
          "internalType": "uint256",
          "name": "tokenId",
          "type": "uint256"
        }
      ],
      "name": "approve",
      "outputs": [],
      "stateMutability": "nonpayable",
      "type": "function"
    },
    {
      "inputs": [
        {
          "internalType": "address",
          "name": "owner",
          "type": "address"
        }
      ],
      "name": "balanceOf",
      "outputs": [
        {
          "internalType": "uint256",
          "name": "",
          "type": "uint256"
        }
      ],
      "stateMutability": "view",
      "type": "function"
    },
    {
      "inputs": [
        {
          "internalType": "uint256",
          "name": "positionId",
          "type": "uint256"
        }
      ],
      "name": "burn",
      "outputs": [
        {
          "internalType": "uint256",
          "name": "amount0",
          "type": "uint256"
        },
        {
          "internalType": "uint256",
          "name": "amount1",
          "type": "uint256"
        }
      ],
      "stateMutability": "nonpayable",
      "type": "function"
    },
    {
      "inputs": [
        {
          "internalType": "uint256",
          "name": "positionId",
          "type": "uint256"
        },
        {
          "internalType": "address",
          "name": "recipient",
          "type": "address"
        }
      ],
      "name": "collect",
      "outputs": [
        {
          "internalType": "uint256",
          "name": "amount0",
          "type": "uint256"
        },
        {
          "internalType": "uint256",
          "name": "amount1",
          "type": "uint256"
        }
      ],
      "stateMutability": "nonpayable",
      "type": "function"
    },
    {
      "inputs": [],
      "name": "getAllPositions",
      "outputs": [
        {
          "components": [
            {
              "internalType": "uint256",
              "name": "id",
              "type": "uint256"
            },
            {
              "internalType": "address",
              "name": "owner",
              "type": "address"
            },
            {
              "internalType": "address",
              "name": "token0",
              "type": "address"
            },
            {
              "internalType": "address",
              "name": "token1",
              "type": "address"
            },
            {
              "internalType": "uint32",
              "name": "index",
              "type": "uint32"
            },
            {
              "internalType": "uint24",
              "name": "fee",
              "type": "uint24"
            },
            {
              "internalType": "uint128",
              "name": "liquidity",
              "type": "uint128"
            },
            {
              "internalType": "int24",
              "name": "tickLower",
              "type": "int24"
            },
            {
              "internalType": "int24",
              "name": "tickUpper",
              "type": "int24"
            },
            {
              "internalType": "uint128",
              "name": "tokensOwed0",
              "type": "uint128"
            },
            {
              "internalType": "uint128",
              "name": "tokensOwed1",
              "type": "uint128"
            },
            {
              "internalType": "uint256",
              "name": "feeGrowthInside0LastX128",
              "type": "uint256"
            },
            {
              "internalType": "uint256",
              "name": "feeGrowthInside1LastX128",
              "type": "uint256"
            }
          ],
          "internalType": "struct IPositionManager.PositionInfo[]",
          "name": "positionInfo",
          "type": "tuple[]"
        }
      ],
      "stateMutability": "view",
      "type": "function"
    },
    {
      "inputs": [
        {
          "internalType": "uint256",
          "name": "tokenId",
          "type": "uint256"
        }
      ],
      "name": "getApproved",
      "outputs": [
        {
          "internalType": "address",
          "name": "",
          "type": "address"
        }
      ],
      "stateMutability": "view",
      "type": "function"
    },
    {
      "inputs": [],
      "name": "getSender",
      "outputs": [
        {
          "internalType": "address",
          "name": "",
          "type": "address"
        }
      ],
      "stateMutability": "view",
      "type": "function"
    },
    {
      "inputs": [
        {
          "internalType": "address",
          "name": "owner",
          "type": "address"
        },
        {
          "internalType": "address",
          "name": "operator",
          "type": "address"
        }
      ],
      "name": "isApprovedForAll",
      "outputs": [
        {
          "internalType": "bool",
          "name": "",
          "type": "bool"
        }
      ],
      "stateMutability": "view",
      "type": "function"
    },
    {
      "inputs": [
        {
          "components": [
            {
              "internalType": "address",
              "name": "token0",
              "type": "address"
            },
            {
              "internalType": "address",
              "name": "token1",
              "type": "address"
            },
            {
              "internalType": "uint32",
              "name": "index",
              "type": "uint32"
            },
            {
              "internalType": "uint256",
              "name": "amount0Desired",
              "type": "uint256"
            },
            {
              "internalType": "uint256",
              "name": "amount1Desired",
              "type": "uint256"
            },
            {
              "internalType": "address",
              "name": "recipient",
              "type": "address"
            },
            {
              "internalType": "uint256",
              "name": "deadline",
              "type": "uint256"
            }
          ],
          "internalType": "struct IPositionManager.MintParams",
          "name": "params",
          "type": "tuple"
        }
      ],
      "name": "mint",
      "outputs": [
        {
          "internalType": "uint256",
          "name": "positionId",
          "type": "uint256"
        },
        {
          "internalType": "uint128",
          "name": "liquidity",
          "type": "uint128"
        },
        {
          "internalType": "uint256",
          "name": "amount0",
          "type": "uint256"
        },
        {
          "internalType": "uint256",
          "name": "amount1",
          "type": "uint256"
        }
      ],
      "stateMutability": "payable",
      "type": "function"
    },
    {
      "inputs": [
        {
          "internalType": "uint256",
          "name": "amount0",
          "type": "uint256"
        },
        {
          "internalType": "uint256",
          "name": "amount1",
          "type": "uint256"
        },
        {
          "internalType": "bytes",
          "name": "data",
          "type": "bytes"
        }
      ],
      "name": "mintCallback",
      "outputs": [],
      "stateMutability": "nonpayable",
      "type": "function"
    },
    {
      "inputs": [],
      "name": "name",
      "outputs": [
        {
          "internalType": "string",
          "name": "",
          "type": "string"
        }
      ],
      "stateMutability": "view",
      "type": "function"
    },
    {
      "inputs": [
        {
          "internalType": "uint256",
          "name": "tokenId",
          "type": "uint256"
        }
      ],
      "name": "ownerOf",
      "outputs": [
        {
          "internalType": "address",
          "name": "",
          "type": "address"
        }
      ],
      "stateMutability": "view",
      "type": "function"
    },
    {
      "inputs": [],
      "name": "poolManager",
      "outputs": [
        {
          "internalType": "contract IPoolManager",
          "name": "",
          "type": "address"
        }
      ],
      "stateMutability": "view",
      "type": "function"
    },
    {
      "inputs": [
        {
          "internalType": "uint256",
          "name": "",
          "type": "uint256"
        }
      ],
      "name": "positions",
      "outputs": [
        {
          "internalType": "uint256",
          "name": "id",
          "type": "uint256"
        },
        {
          "internalType": "address",
          "name": "owner",
          "type": "address"
        },
        {
          "internalType": "address",
          "name": "token0",
          "type": "address"
        },
        {
          "internalType": "address",
          "name": "token1",
          "type": "address"
        },
        {
          "internalType": "uint32",
          "name": "index",
          "type": "uint32"
        },
        {
          "internalType": "uint24",
          "name": "fee",
          "type": "uint24"
        },
        {
          "internalType": "uint128",
          "name": "liquidity",
          "type": "uint128"
        },
        {
          "internalType": "int24",
          "name": "tickLower",
          "type": "int24"
        },
        {
          "internalType": "int24",
          "name": "tickUpper",
          "type": "int24"
        },
        {
          "internalType": "uint128",
          "name": "tokensOwed0",
          "type": "uint128"
        },
        {
          "internalType": "uint128",
          "name": "tokensOwed1",
          "type": "uint128"
        },
        {
          "internalType": "uint256",
          "name": "feeGrowthInside0LastX128",
          "type": "uint256"
        },
        {
          "internalType": "uint256",
          "name": "feeGrowthInside1LastX128",
          "type": "uint256"
        }
      ],
      "stateMutability": "view",
      "type": "function"
    },
    {
      "inputs": [
        {
          "internalType": "address",
          "name": "from",
          "type": "address"
        },
        {
          "internalType": "address",
          "name": "to",
          "type": "address"
        },
        {
          "internalType": "uint256",
          "name": "tokenId",
          "type": "uint256"
        }
      ],
      "name": "safeTransferFrom",
      "outputs": [],
      "stateMutability": "nonpayable",
      "type": "function"
    },
    {
      "inputs": [
        {
          "internalType": "address",
          "name": "from",
          "type": "address"
        },
        {
          "internalType": "address",
          "name": "to",
          "type": "address"
        },
        {
          "internalType": "uint256",
          "name": "tokenId",
          "type": "uint256"
        },
        {
          "internalType": "bytes",
          "name": "data",
          "type": "bytes"
        }
      ],
      "name": "safeTransferFrom",
      "outputs": [],
      "stateMutability": "nonpayable",
      "type": "function"
    },
    {
      "inputs": [
        {
          "internalType": "address",
          "name": "operator",
          "type": "address"
        },
        {
          "internalType": "bool",
          "name": "approved",
          "type": "bool"
        }
      ],
      "name": "setApprovalForAll",
      "outputs": [],
      "stateMutability": "nonpayable",
      "type": "function"
    },
    {
      "inputs": [
        {
          "internalType": "bytes4",
          "name": "interfaceId",
          "type": "bytes4"
        }
      ],
      "name": "supportsInterface",
      "outputs": [
        {
          "internalType": "bool",
          "name": "",
          "type": "bool"
        }
      ],
      "stateMutability": "view",
      "type": "function"
    },
    {
      "inputs": [],
      "name": "symbol",
      "outputs": [
        {
          "internalType": "string",
          "name": "",
          "type": "string"
        }
      ],
      "stateMutability": "view",
      "type": "function"
    },
    {
      "inputs": [
        {
          "internalType": "uint256",
          "name": "tokenId",
          "type": "uint256"
        }
      ],
      "name": "tokenURI",
      "outputs": [
        {
          "internalType": "string",
          "name": "",
          "type": "string"
        }
      ],
      "stateMutability": "view",
      "type": "function"
    },
    {
      "inputs": [
        {
          "internalType": "address",
          "name": "from",
          "type": "address"
        },
        {
          "internalType": "address",
          "name": "to",
          "type": "address"
        },
        {
          "internalType": "uint256",
          "name": "tokenId",
          "type": "uint256"
        }
      ],
      "name": "transferFrom",
      "outputs": [],
      "stateMutability": "nonpayable",
      "type": "function"
    }
  ],
  "bytecode": "0x6080604052600780546001600160b01b0319166001179055348015610022575f5ffd5b50604051612f62380380612f62833981016040819052610041916100cc565b6040518060400160405280601181526020017026bcaab734b9bbb0b82837b9b4ba34b7b760791b8152506040518060400160405280600481526020016304d5553560e41b815250815f90816100969190610191565b5060016100a38282610191565b5050600680546001600160a01b0319166001600160a01b0393909316929092179091555061024b565b5f602082840312156100dc575f5ffd5b81516001600160a01b03811681146100f2575f5ffd5b9392505050565b634e487b7160e01b5f52604160045260245ffd5b600181811c9082168061012157607f821691505b60208210810361013f57634e487b7160e01b5f52602260045260245ffd5b50919050565b601f82111561018c57805f5260205f20601f840160051c8101602085101561016a5750805b601f840160051c820191505b81811015610189575f8155600101610176565b50505b505050565b81516001600160401b038111156101aa576101aa6100f9565b6101be816101b8845461010d565b84610145565b6020601f8211600181146101f0575f83156101d95750848201515b5f19600385901b1c1916600184901b178455610189565b5f84815260208120601f198516915b8281101561021f57878501518255602094850194600190920191016101ff565b508482101561023c57868401515f19600387901b60f8161c191681555b50505050600190811b01905550565b612d0a806102585f395ff3fe608060405260043610610126575f3560e01c80636352211e116100a85780639f382e9b1161006d5780639f382e9b146103ff578063a22cb4651461041e578063b88d4fde1461043d578063c87b56dd1461045c578063dc4c90d31461047b578063e985e9c51461049a575f5ffd5b80636352211e146102b757806370a08231146102d65780638d3c100a1461030357806395d89b411461032257806399fbab8814610336575f5ffd5b806323b872dd116100ee57806323b872dd146101f85780632c6cc6c71461021757806342842e0e1461025257806342966c68146102715780635e01eb5a146102a5575f5ffd5b806301ffc9a71461012a57806306fdde031461015e578063081812fc1461017f578063095ea7b3146101b657806318f56a0a146101d7575b5f5ffd5b348015610135575f5ffd5b506101496101443660046123e9565b6104b9565b60405190151581526020015b60405180910390f35b348015610169575f5ffd5b5061017261050a565b6040516101559190612432565b34801561018a575f5ffd5b5061019e610199366004612444565b610599565b6040516001600160a01b039091168152602001610155565b3480156101c1575f5ffd5b506101d56101d036600461246f565b6105c0565b005b3480156101e2575f5ffd5b506101eb6105cf565b6040516101559190612499565b348015610203575f5ffd5b506101d56102123660046125f8565b6107f6565b61022a610225366004612636565b610884565b604080519485526001600160801b039093166020850152918301526060820152608001610155565b34801561025d575f5ffd5b506101d561026c3660046125f8565b611043565b34801561027c575f5ffd5b5061029061028b366004612444565b611062565b60408051928352602083019190915201610155565b3480156102b0575f5ffd5b503361019e565b3480156102c2575f5ffd5b5061019e6102d1366004612444565b61135c565b3480156102e1575f5ffd5b506102f56102f036600461264f565b611366565b604051908152602001610155565b34801561030e575f5ffd5b5061029061031d36600461266a565b6113ab565b34801561032d575f5ffd5b5061017261156c565b348015610341575f5ffd5b506103e6610350366004612444565b60086020525f9081526040902080546001820154600280840154600385015460048601546005870154600688015460079098015496976001600160a01b039687169794871696841695600160a01b850463ffffffff1695600160c01b90950462ffffff16946001600160801b0380861695600160801b808204850b96600160981b90920490940b9482821694909104909116918d565b6040516101559d9c9b9a99989796959493929190612698565b34801561040a575f5ffd5b506101d5610419366004612741565b61157b565b348015610429575f5ffd5b506101d56104383660046127ca565b61176c565b348015610448575f5ffd5b506101d561045736600461280a565b611777565b348015610467575f5ffd5b50610172610476366004612444565b61178f565b348015610486575f5ffd5b5060065461019e906001600160a01b031681565b3480156104a5575f5ffd5b506101496104b43660046128eb565b611800565b5f6001600160e01b031982166380ac58cd60e01b14806104e957506001600160e01b03198216635b5e139f60e01b145b8061050457506301ffc9a760e01b6001600160e01b03198316145b92915050565b60605f805461051890612917565b80601f016020809104026020016040519081016040528092919081815260200182805461054490612917565b801561058f5780601f106105665761010080835404028352916020019161058f565b820191905f5260205f20905b81548152906001019060200180831161057257829003601f168201915b5050505050905090565b5f6105a38261182d565b505f828152600460205260409020546001600160a01b0316610504565b6105cb828233611865565b5050565b6007546060906105ea906001906001600160b01b0316612963565b6001600160b01b031667ffffffffffffffff81111561060b5761060b6127f6565b6040519080825280602002602001820160405280156106a057816020015b604080516101a0810182525f8082526020808301829052928201819052606082018190526080820181905260a0820181905260c0820181905260e08201819052610100820181905261012082018190526101408201819052610160820181905261018082015282525f199092019101816106295790505b5090505f5b6007546106bd906001906001600160b01b0316612963565b6001600160b01b03168163ffffffff1610156107f25760085f6106e1836001612982565b63ffffffff908116825260208083019390935260409182015f2082516101a0810184528154815260018201546001600160a01b039081169582019590955260028083015486169482019490945260038201549485166060820152600160a01b850483166080820152600160c01b90940462ffffff1660a085015260048101546001600160801b0380821660c0870152600160801b808304860b60e0880152600160981b90920490940b61010086015260058201548085166101208701520490921661014084015260068201546101608401526007909101546101808301528351849184169081106107d4576107d461299e565b602002602001018190525080806107ea906129b2565b9150506106a5565b5090565b6001600160a01b03821661082457604051633250574960e11b81525f60048201526024015b60405180910390fd5b5f610830838333611872565b9050836001600160a01b0316816001600160a01b03161461087e576040516364283d7b60e01b81526001600160a01b038086166004830152602482018490528216604482015260640161081b565b50505050565b5f80808060c0850135804211156108d35760405162461bcd60e51b8152602060048201526013602482015272151c985b9cd858dd1a5bdb881d1bdbc81bdb19606a1b604482015260640161081b565b6006545f906001600160a01b03166371c54fc96108f360208a018a61264f565b61090360408b0160208c0161264f565b61091360608c0160408d016129e9565b6040518463ffffffff1660e01b815260040161093193929190612a02565b602060405180830381865afa15801561094c573d5f5f3e3d5ffd5b505050506040513d601f19601f820116820180604052508101906109709190612a2b565b90505f8190505f816001600160a01b0316638db791d26040518163ffffffff1660e01b8152600401602060405180830381865afa1580156109b3573d5f5f3e3d5ffd5b505050506040513d601f19601f820116820180604052508101906109d79190612a2b565b90505f610a42836001600160a01b03166359c4f9056040518163ffffffff1660e01b8152600401602060405180830381865afa158015610a19573d5f5f3e3d5ffd5b505050506040513d601f19601f82011682018060405250810190610a3d9190612a46565b611964565b90505f610a84846001600160a01b03166355b812a86040518163ffffffff1660e01b8152600401602060405180830381865afa158015610a19573d5f5f3e3d5ffd5b9050610a9b8383838e606001358f60800135611c1c565b98505f610aab60208d018d61264f565b610abb60408e0160208f0161264f565b8d6040016020810190610ace91906129e9565b604080516001600160a01b039485166020820152939092169183019190915263ffffffff16606082015233608082015260a00160408051601f19818403018152908290526392f026ad60e01b825291506001600160a01b038616906392f026ad90610b419030908e908690600401612a66565b60408051808303815f875af1158015610b5c573d5f5f3e3d5ffd5b505050506040513d601f19601f82011682018060405250810190610b809190612a98565b9099509750610be5610b9860c08e0160a08f0161264f565b600780546001600160b01b0316905f610bb083612aba565b91906101000a8154816001600160b01b0302191690836001600160b01b031602179055506001600160b01b03169c508c611cdd565b6040516316c1973960e01b81523060048201525f9081906001600160a01b038816906316c197399060240160a060405180830381865afa158015610c2b573d5f5f3e3d5ffd5b505050506040513d601f19601f82011682018060405250810190610c4f9190612af2565b50509250925050604051806101a001604052808e81526020018f60a0016020810190610c7b919061264f565b6001600160a01b031681526020018f5f016020810190610c9b919061264f565b6001600160a01b031681526020018f6020016020810190610cbc919061264f565b6001600160a01b031681526020018f6040016020810190610cdd91906129e9565b63ffffffff168152602001886001600160a01b031663ddca3f436040518163ffffffff1660e01b8152600401602060405180830381865afa158015610d24573d5f5f3e3d5ffd5b505050506040513d601f19601f82011682018060405250810190610d489190612b46565b62ffffff1681526020018d6001600160801b03168152602001886001600160a01b03166359c4f9056040518163ffffffff1660e01b8152600401602060405180830381865afa158015610d9d573d5f5f3e3d5ffd5b505050506040513d601f19601f82011682018060405250810190610dc19190612a46565b60020b8152602001886001600160a01b03166355b812a86040518163ffffffff1660e01b8152600401602060405180830381865afa158015610e05573d5f5f3e3d5ffd5b505050506040513d601f19601f82011682018060405250810190610e299190612a46565b60020b81526020015f6001600160801b031681526020015f6001600160801b031681526020018381526020018281525060085f8f81526020019081526020015f205f820151815f01556020820151816001015f6101000a8154816001600160a01b0302191690836001600160a01b031602179055506040820151816002015f6101000a8154816001600160a01b0302191690836001600160a01b031602179055506060820151816003015f6101000a8154816001600160a01b0302191690836001600160a01b0316021790555060808201518160030160146101000a81548163ffffffff021916908363ffffffff16021790555060a08201518160030160186101000a81548162ffffff021916908362ffffff16021790555060c0820151816004015f6101000a8154816001600160801b0302191690836001600160801b0316021790555060e08201518160040160106101000a81548162ffffff021916908360020b62ffffff1602179055506101008201518160040160136101000a81548162ffffff021916908360020b62ffffff160217905550610120820151816005015f6101000a8154816001600160801b0302191690836001600160801b031602179055506101408201518160050160106101000a8154816001600160801b0302191690836001600160801b03160217905550610160820151816006015561018082015181600701559050505050505050505050509193509193565b61105d83838360405180602001604052805f815250611777565b505050565b5f5f825f61106f8261135c565b905061107c813384611d3e565b6110b75760405162461bcd60e51b815260206004820152600c60248201526b139bdd08185c1c1c9bdd995960a21b604482015260640161081b565b5f858152600860205260408082206004808201546006546002840154600385015495516371c54fc960e01b815294966001600160801b039093169592946001600160a01b03928316946371c54fc9946111269493841693811692600160a01b90910463ffffffff169101612a02565b602060405180830381865afa158015611141573d5f5f3e3d5ffd5b505050506040513d601f19601f820116820180604052508101906111659190612a2b565b6040516390bc169360e01b81526001600160801b038416600482015290915081906001600160a01b038216906390bc16939060240160408051808303815f875af11580156111b5573d5f5f3e3d5ffd5b505050506040513d601f19601f820116820180604052508101906111d99190612a98565b6040516316c1973960e01b815230600482015291995097505f9081906001600160a01b038416906316c197399060240160a060405180830381865afa158015611224573d5f5f3e3d5ffd5b505050506040513d601f19601f820116820180604052508101906112489190612af2565b5050925092505061127a8660060154836112629190612b68565b60048801546001600160801b0316600160801b611da2565b611284908b612b7b565b6005870180545f906112a09084906001600160801b0316612b7b565b92506101000a8154816001600160801b0302191690836001600160801b031602179055506112d78660070154826112629190612b68565b6112e1908a612b7b565b600587018054601090611305908490600160801b90046001600160801b0316612b7b565b82546001600160801b039182166101009390930a9283029190920219909116179055506006860191909155600785015550505060040180546fffffffffffffffffffffffffffffffff191690555091939092509050565b5f6105048261182d565b5f6001600160a01b038216611390576040516322718ad960e21b81525f600482015260240161081b565b506001600160a01b03165f9081526003602052604090205490565b5f5f835f6113b88261135c565b90506113c5813384611d3e565b6114005760405162461bcd60e51b815260206004820152600c60248201526b139bdd08185c1c1c9bdd995960a21b604482015260640161081b565b5f868152600860205260408082206006546002820154600383015493516371c54fc960e01b81529294936001600160a01b03928316936371c54fc99361145e9381169290811691600160a01b90910463ffffffff1690600401612a02565b602060405180830381865afa158015611479573d5f5f3e3d5ffd5b505050506040513d601f19601f8201168201806040525081019061149d9190612a2b565b60058301546040516360d49d5360e01b81526001600160a01b038a811660048301526001600160801b038084166024840152600160801b90930490921660448201529192508291908216906360d49d539060640160408051808303815f875af115801561150c573d5f5f3e3d5ffd5b505050506040513d601f19601f820116820180604052508101906115309190612b9a565b5f6005860181905560048601546001600160801b039384169a509183169850911690036115605761156089611e3e565b50505050509250929050565b60606001805461051890612917565b5f80808061158b85870187612bcb565b6006546040516371c54fc960e01b815294985092965090945092505f916001600160a01b03909116906371c54fc9906115cc90889088908890600401612a02565b602060405180830381865afa1580156115e7573d5f5f3e3d5ffd5b505050506040513d601f19601f8201168201806040525081019061160b9190612a2b565b90506001600160a01b03811633146116655760405162461bcd60e51b815260206004820152601760248201527f496e76616c69642063616c6c6261636b2063616c6c6572000000000000000000604482015260640161081b565b88156116e3576040516323b872dd60e01b81526001600160a01b038381166004830152336024830152604482018b90528616906323b872dd906064016020604051808303815f875af11580156116bd573d5f5f3e3d5ffd5b505050506040513d601f19601f820116820180604052508101906116e19190612c22565b505b8715611761576040516323b872dd60e01b81526001600160a01b038381166004830152336024830152604482018a90528516906323b872dd906064016020604051808303815f875af115801561173b573d5f5f3e3d5ffd5b505050506040513d601f19601f8201168201806040525081019061175f9190612c22565b505b505050505050505050565b6105cb338383611e76565b6117828484846107f6565b61087e3385858585611f14565b606061179a8261182d565b505f6117b060408051602081019091525f815290565b90505f8151116117ce5760405180602001604052805f8152506117f9565b806117d88461203c565b6040516020016117e9929190612c54565b6040516020818303038152906040525b9392505050565b6001600160a01b039182165f90815260056020908152604080832093909416825291909152205460ff1690565b5f818152600260205260408120546001600160a01b03168061050457604051637e27328960e01b81526004810184905260240161081b565b61105d83838360016120cc565b5f828152600260205260408120546001600160a01b039081169083161561189e5761189e8184866121d0565b6001600160a01b038116156118d8576118b95f855f5f6120cc565b6001600160a01b0381165f90815260036020526040902080545f190190555b6001600160a01b03851615611906576001600160a01b0385165f908152600360205260409020805460010190555b5f8481526002602052604080822080546001600160a01b0319166001600160a01b0389811691821790925591518793918516917fddf252ad1be2c89b69c2b068fc378daa952ba7f163c4a11628f55a4df523b3ef91a4949350505050565b60020b5f60ff82901d80830118620d89e881111561198d5761198d6345c3193d60e11b84612234565b7001fffcb933bd6fad37aa2d162d1a5940016001821602600160801b1860028216156119c9576ffff97272373d413259a46990580e213a0260801c5b60048216156119e8576ffff2e50f5f656932ef12357cf3c7fdcc0260801c5b6008821615611a07576fffe5caca7e10e4e61c3624eaa0941cd00260801c5b6010821615611a26576fffcb9843d60f6159c9db58835c9266440260801c5b6020821615611a45576fff973b41fa98c081472e6896dfb254c00260801c5b6040821615611a64576fff2ea16466c96a3843ec78b326b528610260801c5b6080821615611a83576ffe5dee046a99a2a811c461f1969c30530260801c5b610100821615611aa3576ffcbe86c7900a88aedcffc83b479aa3a40260801c5b610200821615611ac3576ff987a7253ac413176f2b074cf7815e540260801c5b610400821615611ae3576ff3392b0822b70005940c7a398e4b70f30260801c5b610800821615611b03576fe7159475a2c29b7443b29c7fa6e889d90260801c5b611000821615611b23576fd097f3bdfd2022b8845ad8f792aa58250260801c5b612000821615611b43576fa9f746462d870fdf8a65dc1f90e061e50260801c5b614000821615611b63576f70d869a156d2a1b890bb3df62baf32f70260801c5b618000821615611b83576f31be135f97d08fd981231505542fcfa60260801c5b62010000821615611ba4576f09aa508b5b7a84e1c677de54f3e99bc90260801c5b62020000821615611bc4576e5d6af8dedb81196699c329225ee6040260801c5b62040000821615611be3576d2216e584f5fa1ea926041bedfe980260801c5b62080000821615611c00576b048a170391f7dc42444e8fa20260801c5b5f841315611c0c575f19045b63ffffffff0160201c9392505050565b5f836001600160a01b0316856001600160a01b03161115611c3b579293925b846001600160a01b0316866001600160a01b031611611c6657611c5f858585612243565b9050611cd4565b836001600160a01b0316866001600160a01b03161015611cc6575f611c8c878686612243565b90505f611c9a8789866122ab565b9050806001600160801b0316826001600160801b031610611cbb5780611cbd565b815b92505050611cd4565b611cd18585846122ab565b90505b95945050505050565b6001600160a01b038216611d0657604051633250574960e11b81525f600482015260240161081b565b5f611d1283835f611872565b90506001600160a01b0381161561105d576040516339e3563760e11b81525f600482015260240161081b565b5f6001600160a01b03831615801590611d9a5750826001600160a01b0316846001600160a01b03161480611d775750611d778484611800565b80611d9a57505f828152600460205260409020546001600160a01b038481169116145b949350505050565b5f838302815f1985870982811083820303915050808411611dc1575f5ffd5b805f03611dd3575082900490506117f9565b5f848688095f868103871696879004966002600389028118808a02820302808a02820302808a02820302808a02820302808a02820302808a02909103029181900381900460010186841190950394909402919094039290920491909117919091029150509392505050565b5f611e4a5f835f611872565b90506001600160a01b0381166105cb57604051637e27328960e01b81526004810183905260240161081b565b6001600160a01b038216611ea857604051630b61174360e31b81526001600160a01b038316600482015260240161081b565b6001600160a01b038381165f81815260056020908152604080832094871680845294825291829020805460ff191686151590811790915591519182527f17307eab39ab6107e8899845ad3d59bd9653f200f220920489ca2b5937696c31910160405180910390a3505050565b6001600160a01b0383163b1561203557604051630a85bd0160e11b81526001600160a01b0384169063150b7a0290611f56908890889087908790600401612c68565b6020604051808303815f875af1925050508015611f90575060408051601f3d908101601f19168201909252611f8d91810190612c9a565b60015b611ff7573d808015611fbd576040519150601f19603f3d011682016040523d82523d5f602084013e611fc2565b606091505b5080515f03611fef57604051633250574960e11b81526001600160a01b038516600482015260240161081b565b805160208201fd5b6001600160e01b03198116630a85bd0160e11b1461203357604051633250574960e11b81526001600160a01b038516600482015260240161081b565b505b5050505050565b60605f612048836122e0565b60010190505f8167ffffffffffffffff811115612067576120676127f6565b6040519080825280601f01601f191660200182016040528015612091576020820181803683370190505b5090508181016020015b5f19016f181899199a1a9b1b9c1cb0b131b232b360811b600a86061a8153600a850494508461209b57509392505050565b80806120e057506001600160a01b03821615155b156121a1575f6120ef8461182d565b90506001600160a01b0383161580159061211b5750826001600160a01b0316816001600160a01b031614155b801561212e575061212c8184611800565b155b156121575760405163a9fbf51f60e01b81526001600160a01b038416600482015260240161081b565b811561219f5783856001600160a01b0316826001600160a01b03167f8c5be1e5ebec7d5bd14f71427d1e84f3dd0314c0f7b2291e5b200ac8c7c3b92560405160405180910390a45b505b50505f90815260046020526040902080546001600160a01b0319166001600160a01b0392909216919091179055565b6121db838383611d3e565b61105d576001600160a01b03831661220957604051637e27328960e01b81526004810182905260240161081b565b60405163177e802f60e01b81526001600160a01b03831660048201526024810182905260440161081b565b815f528060020b60045260245ffd5b5f826001600160a01b0316846001600160a01b03161115612262579192915b5f612284856001600160a01b0316856001600160a01b0316600160601b611da2565b9050611cd46122a684836122988989612cb5565b6001600160a01b0316611da2565b6123b7565b5f826001600160a01b0316846001600160a01b031611156122ca579192915b611d9a6122a683600160601b6122988888612cb5565b5f8072184f03e93ff9f4daa797ed6e38ed64bf6a1f0160401b831061231e5772184f03e93ff9f4daa797ed6e38ed64bf6a1f0160401b830492506040015b6d04ee2d6d415b85acef8100000000831061234a576d04ee2d6d415b85acef8100000000830492506020015b662386f26fc10000831061236857662386f26fc10000830492506010015b6305f5e1008310612380576305f5e100830492506008015b612710831061239457612710830492506004015b606483106123a6576064830492506002015b600a83106105045760010192915050565b806001600160801b03811681146123cc575f5ffd5b919050565b6001600160e01b0319811681146123e6575f5ffd5b50565b5f602082840312156123f9575f5ffd5b81356117f9816123d1565b5f81518084528060208401602086015e5f602082860101526020601f19601f83011685010191505092915050565b602081525f6117f96020830184612404565b5f60208284031215612454575f5ffd5b5035919050565b6001600160a01b03811681146123e6575f5ffd5b5f5f60408385031215612480575f5ffd5b823561248b8161245b565b946020939093013593505050565b602080825282518282018190525f918401906040840190835b818110156125ed5783518051845260208101516124da60208601826001600160a01b03169052565b5060408101516124f560408601826001600160a01b03169052565b50606081015161251060608601826001600160a01b03169052565b506080810151612528608086018263ffffffff169052565b5060a081015161253f60a086018262ffffff169052565b5060c081015161255a60c08601826001600160801b03169052565b5060e081015161256f60e086018260020b9052565b5061010081015161258661010086018260020b9052565b506101208101516125a36101208601826001600160801b03169052565b506101408101516125c06101408601826001600160801b03169052565b5061016081810151908501526101809081015190840152602093909301926101a0909201916001016124b2565b509095945050505050565b5f5f5f6060848603121561260a575f5ffd5b83356126158161245b565b925060208401356126258161245b565b929592945050506040919091013590565b5f60e0828403128015612647575f5ffd5b509092915050565b5f6020828403121561265f575f5ffd5b81356117f98161245b565b5f5f6040838503121561267b575f5ffd5b82359150602083013561268d8161245b565b809150509250929050565b8d81526001600160a01b038d811660208301528c811660408301528b16606082015263ffffffff8a16608082015262ffffff891660a08201526101a081016001600160801b03891660c08301526126f460e083018960020b9052565b61270461010083018860020b9052565b6001600160801b0386166101208301526001600160801b03851661014083015261016082019390935261018001529b9a5050505050505050505050565b5f5f5f5f60608587031215612754575f5ffd5b8435935060208501359250604085013567ffffffffffffffff811115612778575f5ffd5b8501601f81018713612788575f5ffd5b803567ffffffffffffffff81111561279e575f5ffd5b8760208284010111156127af575f5ffd5b949793965060200194505050565b80151581146123e6575f5ffd5b5f5f604083850312156127db575f5ffd5b82356127e68161245b565b9150602083013561268d816127bd565b634e487b7160e01b5f52604160045260245ffd5b5f5f5f5f6080858703121561281d575f5ffd5b84356128288161245b565b935060208501356128388161245b565b925060408501359150606085013567ffffffffffffffff81111561285a575f5ffd5b8501601f8101871361286a575f5ffd5b803567ffffffffffffffff811115612884576128846127f6565b604051601f8201601f19908116603f0116810167ffffffffffffffff811182821017156128b3576128b36127f6565b6040528181528282016020018910156128ca575f5ffd5b816020840160208301375f6020838301015280935050505092959194509250565b5f5f604083850312156128fc575f5ffd5b82356129078161245b565b9150602083013561268d8161245b565b600181811c9082168061292b57607f821691505b60208210810361294957634e487b7160e01b5f52602260045260245ffd5b50919050565b634e487b7160e01b5f52601160045260245ffd5b6001600160b01b0382811682821603908111156105045761050461294f565b63ffffffff81811683821601908111156105045761050461294f565b634e487b7160e01b5f52603260045260245ffd5b5f63ffffffff821663ffffffff81036129cd576129cd61294f565b60010192915050565b803563ffffffff811681146123cc575f5ffd5b5f602082840312156129f9575f5ffd5b6117f9826129d6565b6001600160a01b03938416815291909216602082015263ffffffff909116604082015260600190565b5f60208284031215612a3b575f5ffd5b81516117f98161245b565b5f60208284031215612a56575f5ffd5b81518060020b81146117f9575f5ffd5b6001600160a01b03841681526001600160801b03831660208201526060604082018190525f90611cd490830184612404565b5f5f60408385031215612aa9575f5ffd5b505080516020909101519092909150565b5f6001600160b01b0382166002600160b01b031981016129cd576129cd61294f565b80516001600160801b03811681146123cc575f5ffd5b5f5f5f5f5f60a08688031215612b06575f5ffd5b612b0f86612adc565b6020870151604088015191965094509250612b2c60608701612adc565b9150612b3a60808701612adc565b90509295509295909350565b5f60208284031215612b56575f5ffd5b815162ffffff811681146117f9575f5ffd5b818103818111156105045761050461294f565b6001600160801b0381811683821601908111156105045761050461294f565b5f5f60408385031215612bab575f5ffd5b612bb483612adc565b9150612bc260208401612adc565b90509250929050565b5f5f5f5f60808587031215612bde575f5ffd5b8435612be98161245b565b93506020850135612bf98161245b565b9250612c07604086016129d6565b91506060850135612c178161245b565b939692955090935050565b5f60208284031215612c32575f5ffd5b81516117f9816127bd565b5f81518060208401855e5f93019283525090919050565b5f611d9a612c628386612c3d565b84612c3d565b6001600160a01b03858116825284166020820152604081018390526080606082018190525f90611cd190830184612404565b5f60208284031215612caa575f5ffd5b81516117f9816123d1565b6001600160a01b0382811682821603908111156105045761050461294f56fea2646970667358221220528a03427eb55e97950efe60cfc129d8c4d129904c0ffc5c9517caba0d3a294b64736f6c634300081c0033",
  "linkReferences": {},
  "deployedLinkReferences": {},
  "immutableReferences": {},
  "inputSourceName": "project/contracts/PositionManager.sol",
  "buildInfoId": "solc-0_8_28-721dcfd31de73474cd5355895e8a8b4254aa5165"
}